:0300000002026495
:0C026400787FE4F6D8FD75816D0202ABD6
:100149003032323238323134313133002B383631B2
:10015900333830303232303530300041542B434D52
:1001690047533D0041542B435343413D00492041EE
:100179004D204F4B0041542B435245473F004154BA
:100189002B434D47463D310041542B434D47523D8A
:10019900310041542B434D47443D310041542646DB
:1001A900004154453000415445310047534D2053D7
:1001B900544152542120202020202047534D2053C0
:1001C900544152542121202020202047534D2053AF
:1001D90054415254212121202020204154453020CE
:1001E9004F4B2120202020202020205445585420E6
:1001F9004D4F4445204F4B212020204E455420434C
:100209004F4E4E454354204F4B21204E45542043D9
:100219004F4E4E454354494E47212043454E544580
:1002290052204E554D204F4B21202050484F4E45CE
:10023900204E554D204F4B2120202047534D205310
:10024900454E44204F4B212020202047534D205319
:0B025900454E442052455452592120CC
:10037E00024A000002200000102254494D45203050
:10038E00303A30303A3030202020103254454D5023
:0C039E00203030302E3043202020202062
:0403D3007F0A7E001F
:1003D700E4FDFCC3ED9FEC9E5015E4FBFA0BBB005C
:0F03E700010AEB64644A70F50DBD00010C80E45F
:0103F60022E4
:10048900759850438921438780758DFD43A890D283
:040499008ED2992244
:0A049D007F0D1204A71204A77F0AC6
:0804A7003099FD8F99C29922E2
:030023000203AB2A
:1003AB00C0E0C0D075D018309819C298859943AF6A
:1003BB0049054974502FF8A643E549D395474003A7
:0803CB00854947D0D0D0E03293
:10000300E4FEEE9001AA93FF1204A70EBE04F37F51
:070013000D1204A275460165
:01001A0022C3
:1003F700E4FEEE90017693FF1204A70EBE07F37F8B
:10040700E87E031203D77F1A1204A77F0D1204A2F6
:030417007546081F
:01041A0022BF
:10032100E4FEEE90016493FF1204A70EBE08F37F72
:10033100221204A7E4FEEE90014993FF1204A70ED6
:0E034100BE0BF37F221204A712049D75460620
:01034F00228B
:1002F000E4FEEE90016D93FF1204A70EBE08F37F9B
:10030000221204A7E4FEEE90015593FF1204A70EFB
:10031000BE0EF37F221204A77F0D1204A2754607BA
:0103200022BA
:10041B00E4FEEE9001A593FF1204A70EBE04F312A7
:05042B00049D7546016F
:0104300022A9
:10043100E4FEEE90017E93FF1204A70EBE08F312B4
:05044100049D75460456
:010446002293
:10044700E4FEEE90018793FF1204A70EBE09F31294
:05045700049D75460242
:01045C00227D
:10045D00E4FEEE90019193FF1204A70EBE09F31274
:05046D00049D75460529
:010472002267
:10047300E4FEEE90019B93FF1204A70EBE09F31254
:05048300049D75460315
:010488002251
:100026001203D3E547D394005003020148E546B4D2
:10003600011BE552B44F0DE553B44B08E4F54612E7
:1000460003D780231203D3120003020132E546B41C
:10005600021BE552B44F10E553B44B0BE4F5467F53
:100066000AFE1203D78025120447020132E546B480
:100076000420E559B43006E55B6431600AE559B4FD
:10008600300AE55BB43505E4F546803A12043102E0
:100096000132E54664037003020132E546640770E7
:1000A6002A7F0AFE1203D7E552B44F0CE553B44B30
:1000B60007E4F5467F64806EE552B42B097F647EC3
:1000C600001203D780001202F08061E546B4061CD8
:1000D6001203D3E552B43E12E553B4200DE4F546BF
:1000E6007F641203D71203F78042803DE546640819
:1000F600703A7F0AFE1203D7E552B42B0FE4F54699
:100106007FE87E031203D712045D8020E4F548746D
:10011600502548F8E4F60548E548B41EF2E4F549EA
:10012600F5477FE87E031203D7120321E4F54874EE
:10013600502548F8E4F60548E548B41EF2E4F549CA
:03014600F5472258
:10035000120489E4F5471200037F647E001203D77C
:10036000E4F54874502548F8E4F60548E548B41E1D
:0E037000F2E4F549F54712000312002680FB67
:10027000020350E493A3F8E493A34003F68001F251
:1002800008DFF48029E493A3F85407240CC8C3338F
:10029000C4540F4420C8834004F456800146F6DF5E
:1002A000E4800B010204081020408090037EE47E6D
:1002B000019360BCA3FF543F30E509541FFEE49353
:1002C000A360010ECF54C025E060A840B8E493A31A
:1002D000FAE493A3F8E493A3C8C582C8CAC583CA45
:1002E000F0A3C8C582C8CAC583CADFE9DEE780BEFD
:0103AA000052
:00000001FF
