:10008F0041540D0041542B434D47463D300D004127
:10009F00542B434D47533D33370D003038393136EC
:1000AF003833313038323030393035463031313005
:1000BF0030304439313638353139313431383133E4
:1000CF003546383030303841413136394639393795
:1000DF00413042373533353542353036423232389A
:1000EF00464345363041383030323130303331309D
:0800FF0030333230303333009E
:0901D700010B03010C00010D00F5
:07016F001201AD7FF47E01D7
:10017600D3EF9400EE940040147D6E7C00ED1D706C
:0D018600011CED4C70F7EF1F70E61E80E3CA
:010193002249
:1001AD001201946010F5993099FDC299740129F9E5
:0601BD00E43AFA80EB2297
:1001C300759850D29CE4F587758920758DFD758BE4
:0401D300FDD28E22A9
:10014200E4FFFEC2B67D327C00ED1D70011CED4C59
:1001520070F7D2B67C007D32ED1D70011CED4C7043
:0C016200F70FBF00010EBE01DABF2CD762
:01016E00226E
:100107007FE87E031201761201421201C37BFF7A58
:1001170000798F12016F7A00799312016F7A007953
:100127009E12016F7A0079AA12016F75991A309998
:0B013700FDC29912014212017280FE0D
:03000000020003F8
:0C000300787FE4F6D8FD75810D02004AFC
:10019400BB010689828A83E0225002E722BBFE0269
:0901A400E32289828A83E493229C
:10000F00020107E493A3F8E493A34003F68001F2FF
:10001F0008DFF48029E493A3F85407240CC8C333F2
:10002F00C4540F4420C8834004F456800146F6DFC1
:10003F00E4800B01020408102040809001D7E47E79
:10004F00019360BCA3FF543F30E509541FFEE493B6
:10005F00A360010ECF54C025E060A840B8E493A37D
:10006F00FAE493A3F8E493A3C8C582C8CAC583CAA8
:10007F00F0A3C8C582C8CAC583CADFE9DEE780BE60
:0101E000001E
:00000001FF
