:0300000002000EED
:0C000E00787FE4F6D8FD7581E10205253D
:1006330052454144590041542B4350494E3F0041D8
:1006430054453000415456300041542B43474D4DDF
:100653000041542B434D47463D300041542B434EFC
:100663004D493D322C310041542B4950523D3936CE
:1006730030300041542B434D474C3D22414C4C22DA
:100683000041542B43504D533D22534D22004154BE
:100693002B434D47533D000D0000323500313338B5
:1006A3003138313230353932003030313130303059
:1006B3004439313638003030303841300030410071
:1006C300384242453746364536323130353239467F
:0606D300303032311A0044
:10086800EF4E60147D737C00ED1D70011CED4C7023
:08087800F7EF1F70011E80E87C
:010880002255
:03000B00020831B7
:10083100C0E0C0D075D018758CB8758A007887066D
:1008410078DE06E6187001067887E6B4320C78E0A7
:100851000678877600787906B28078E0E6B43C02C3
:070861007600D0D0D0E03298
:030023000207F2DF
:1007F200C0E0C0D075D018309830C29878E1E6C316
:1008020094545026E6062488F8A69978E1E6B405C1
:10081200197888E6B40D1308E6B40A0E08E6B43275
:0F08220009D20078DF0678E17600D0D0D0E0323E
:0606D9008B698A6A896B3F
:1006DF0012039C7002FF22E4F570FEFDAB69AA6A5B
:1006EF00A96B8D827583001203B5FFAB6CAA6DA940
:1006FF006E8E827583001203B56F70438E6FAB6978
:10070F00AA6AA96B8D827583001203B57004EE047B
:10071F00FF22AB69AA6AA96B8D827583001203B59C
:10072F00FFAB6CAA6DA96E856F827583001203B53E
:10073F00B5070A056F0DE56FC3945340C1E4FD0E75
:05074F00BE53997F007C
:010754002282
:060026008B618A62896310
:10002C00D291C2B3E4F5677F017E001208680567C0
:10003C00E567D3946440F0D2B3AB64AA65A966E4D7
:10004C001203E2F567756D00756E00756F00AB619C
:10005C00AA62A9637F021201FE756D00756E0075B0
:10006C006F00AB61AA62A9637F011201FEAB61AAAA
:10007C0062A9639000011203B5B40D0712039C64CE
:10008C0030607878E1E6FF7E0024FFF582EE34FFE5
:10009C00F5831203B5B40D1774FE2FF582EE34FF01
:1000AC00F583AB61AA62A9631203B56430604CE5B9
:1000BC0067B40129C2B4E4F5677F1E7E001208689C
:1000CC000567E567D394C840F0D2B4E478DDF60850
:1000DC00F6C378DEE6943C18E6940040F4E478DD50
:1000EC00F608F6C378DEE6943C18E6940040F40576
:1000FC0067E567C3940F5003020051E4F567756D13
:10010C0000756E00756F00AB61AA62A9637F021265
:10011C0001FE756D00756E00756F00AB61AA62A96A
:10012C00637F011201FE756D00756E00756F00AB7B
:10013C0061AA62A9637F071201FEE478DDF608F676
:10014C00C378DEE6940218E6940040F485616C8571
:10015C00626D85636E7BFF7A0679331206D98F68E0
:10016C00EF701BE478DDF608F6C378DEE6943C18F5
:10017C00E6940040F40567E567C3940C4080756D08
:10018C0000756E00756F00AB61AA62A9637F0C12DB
:10019C0001FE756D00756E00756F00AB61AA62A9EA
:1001AC00637F051201FEE47879F67879E6C3940F43
:1001BC0040F8C2B3E4F5677F017E0012086805675A
:1001CC00E567D3946440F0D2B3756D00756E00751D
:1001DC006F00AB61AA62A9637F041201FE756D000A
:1001EC00756E00756F00AB61AA62A9637F0D120179
:0101FC00FE04
:0101FD0022DF
:1007AD00758CB8E4F58AC299C298759850758920F0
:1007BD00E58954F04401F589758DFD758BFDE4F5E2
:1007CD008775A8B0D28ED2ACD28CD2A9C2ABD2AF23
:1007DD007580FF7590FF75A0FF75B0FF7887F6786F
:0507ED00E1F6D2B42288
:0601FE008B6A8A6B896C1C
:10020400D291EF120416025601024402028C040237
:10021400680502AE06023207030B0802BF0B029DFB
:100224000C027A0D02D00E02F30F00000304A86C36
:10023400AC6BAD6A7BFF7A06793912050802030BB1
:10024400A86CAC6BAD6A7BFF7A0679421205080292
:10025400030BA86CAC6BAD6A7BFF7A067947120579
:100264000802030BA86CAC6BAD6A7BFF7A06794C71
:1002740012050802030BA86CAC6BAD6A7BFF7A060F
:10028400795412050802030BA86CAC6BAD6A7BFFB2
:100294007A06795E120508806EA86CAC6BAD6A7B39
:1002A400FF7A06796A120508805D78887C007D00F3
:1002B4007BFF7A067976120508804CA86CAC6BAD8E
:1002C4006A7BFF7A067984120508803BA86CAC6BC4
:1002D400AD6A7BFF7A067991120508856D73856E88
:1002E40074856F75AB6AAA6BA96C1207558018A840
:1002F4006CAC6BAD6AAB6DAA6EA96F120508800772
:10030400E478E1F67F0122D2AC7573FF757406754B
:10031400759AAB6AAA6BA96C120755C298C299E484
:10032400FFFEAB6AAA6BA96C8F828E831203B5FDA4
:1003340060128D993099FDC2990FBF00010EEF64D0
:10034400554E70DEE478E1F6AB6AAA6BA96C120331
:10035400E2AB6AAA6BA96C9000011203F49000024C
:10036400E41203F4E4FEFF7887F67F037E001208AC
:100374006878E1E6D394014014E478DDF608F6C326
:1003840078DEE6941E18E69400500A80F27887E638
:07039400C3940340D57F0173
:01039B00223F
:100525001207AD7564007565007566217B007A005C
:100535007988120026758001E478E1F6F55FE55FBC
:1005450070FC756DFF756E06756F9DFB7A00798879
:100555007F0E1201FE787A7C007D007BFF7A06799A
:10056500A0120508E4F56078217C00FD7BFF7A0682
:1005750079AC12050875600CE4FF747B2FF8E6FE74
:10058500AD60056074212DF8A606747A2FF8E6FE95
:10059500AD60056074212DF8A6060F0F747B2FF84A
:1005A500E6FE640D6003EE701CAE60056074212EDE
:1005B500F87646747A2FF8E6FEAD60056074212D55
:1005C500F8A6068006EFD3940F40AF74212560F896
:1005D500E4F67573FF7574067575B9FB7A007921B4
:1005E5001207557573FF7574067575C07B007A0023
:1005F50079211207557573FF7574067575C37B00F0
:100605007A007921120755756D00756E00756F2199
:100615007B007A0079887F0F1201FEE47879F678FD
:0D06250079E6C3940A40F8755F01020543B1
:0106320022A5
:10039C00BB010689828A83E0225002E722BBFE025F
:0903AC00E32289828A83E4932292
:1003B500BB010CE58229F582E5833AF583E02250FD
:1003C50006E92582F8E622BBFE06E92582F8E22247
:0D03D500E58229F582E5833AF583E4932261
:1003E200BB010689828A83F0225002F722BBFE01FA
:0203F200F322F4
:1003F400F8BB010DE58229F582E5833AF583E8F03F
:10040400225006E92582C8F622BBFE05E92582C8EA
:02041400F222D2
:10041600D083D082F8E4937012740193700DA3A375
:1004260093F8740193F5828883E473740293686089
:06043600EFA3A3A380DF89
:100755008B708A7189728B768A778978AB7005720E
:10076500E572AA717002057114F912039C70ED749B
:10077500FF2572F57274FF3571F571AB730575E57B
:1007850075AA747002057414F912039CFFAB700509
:1007950072E572AA717002057114F9EF1203E27025
:0807A500DAAB76AA77A97822ED
:10043C00E709F60870FA8046E709F20870FA803E80
:10044C0088828C83E709F0A370FA807EE309F608B2
:10045C0070FA8076E309F20870FA806E88828C83D9
:10046C00E309F0A370FA806289828A83E0A3F6081C
:10047C0070FA805689828A83E0A3F20870FA804A67
:10048C0080D280FA80C680D4806580F28031801062
:10049C0080A680EA809A80A880DA80E280CA8031C7
:1004AC0089828A83ECFAE493A3C8C582C8CCC5833D
:1004BC00CCF0A3C8C582C8CCC583CC70E9800D89AB
:1004CC00828A83E493A3F60870F9ECFAA9F0EDFBA9
:1004DC002289828A83ECFAE0A3C8C582C8CCC58382
:1004EC00CCF0A3C8C582C8CCC583CC70EA80DD89AA
:1004FC00828A83E493A3F20870F980CE88F0ED240D
:10050C0002B4040050C4F582EB2402B4040050BAC7
:09051C00232345822390048C7313
:00000001FF
