:0300000002000EED
:0C000E00787FE4F6D8FD7581D50203A8C8
:10050D0041542B4350494E3F004154453000415416
:0E051D0056300041542B43474D4D000D000059
:10052B00EF4E60147D737C00ED1D70011CED4C7063
:08053B00F7EF1F70011E80E8BC
:010543002295
:03000B000204DE0E
:1004DE00C0E0C0D0758CB8758A000523054AE54A80
:1004EE0070020549E523B43209054D752300052137
:0F04FE00B280E54DB43C03754D00D0D0D0E03254
:030023000204A034
:1004A000C0E0C0D075D01830982FC29878D5E6C378
:1004B00094635025E6062471F8A69978D5E6B4052C
:1004C000187871E6B40D1208E6B40A0D08E6B432E5
:0E04D00008D200054C78D57600D0D0D0E032AE
:060189008B4E8A4F8950E5
:10018F00758001C2B3E4F5547F017E0012052B0583
:10019F0054E554D3946440F0D2B3AB51AA52A9534F
:1001AF00E412006CF555AB4EAA4FA9507F02120214
:1001BF00B8AB4EAA4FA9507F011202B8AB4EAA4F4F
:1001CF00A95090000112003FB40D0B120026B4305D
:1001DF0005D28302027978D5E6FF7E0024FFF582EF
:1001EF00EE34FFF58312003FB40D1774FE2FF58226
:1001FF00EE34FFF583AB4EAA4FA95012003F643087
:10020F006068E55464017036C2B4F5547F1E7E00F9
:10021F0012052B0554E554D394C840F0D2B4E4F53D
:10022F0049F54AC3E54A943CE549940040F5E4F5A5
:10023F0049F54AC3E54A943CE549940040F5E4F595
:10024F0049F54AC3E54A943CE549940040F5E4F585
:10025F0049F54AC3E54A943CE549940040F50555F4
:10026F00E555C3940F50030201B5AB4EAA4FA950E9
:10027F007F0C1202B8AB4EAA4FA95090000112008A
:10028F003FB40D08120026B43002D2847F0512024B
:10029F00B8C2B3E4F5547F017E0012052B0554E577
:0802AF0054D3946440F0D2B373
:0102B7002224
:10045C00758CB8E4F58AC299C29875985075892044
:10046C00E58954F04401F589758DFD758BFDE4F536
:10047C008775A8B0D28ED2ACD28CD2A9C2ABD2AF77
:10048C007580FF7590FF75A0FF75B0FFF52378D5CB
:04049C00F6D2B422BE
:0602B8008B568A5789589D
:1002BE00EF14603014601C24FD603A24FD604E047F
:1002CE007044A858AC57AD567BFF7A05790D1201D4
:1002DE006C803AA858AC57AD567BFF7A057916124A
:1002EE00016C8029A858AC57AD567BFF7A05791B57
:1002FE0012016C8018A858AC57AD567BFF7A057961
:10030E002012016C8007E478D5F67F0122D2AC75FD
:10031E005CFF755D05755E28AB56AA57A958120489
:10032E0004C298C299E4FFFEAB56AA57A9588F8211
:10033E008E8312003FFD60128D993099FDC2990F88
:10034E00BF00010EEF64644E70DEE478D5F6AB5656
:10035E00AA57A95812006CAB56AA57A9589000017B
:10036E0012007E900002E412007EE4FEFFF5237F71
:10037E00037E0012052B78D5E6D394014012E4F5E6
:10038E0049F54AC3E54A941EE5499400500980F3A5
:09039E00E523C3940340D87F015C
:0103A7002233
:1003A80012045C7551007552007553257B007A0064
:1003B8007971120189E478D5F67B007A0079717F2A
:1003C800051202B878D5E6FF2470F8E6B40D0A7471
:1003D8006F2FF8E6B43002B286E4F549F54AC3E572
:1003E8004A943CE549940040F5E4F549F54AC3E5EB
:0C03F8004A943CE549940050C080F32278
:10002600BB010689828A83E0225002E722BBFE02D8
:09003600E32289828A83E493220B
:10003F00BB010CE58229F582E5833AF583E0225076
:10004F0006E92582F8E622BBFE06E92582F8E222C0
:0D005F00E58229F582E5833AF583E49322DA
:10006C00BB010689828A83F0225002F722BBFE0173
:02007C00F3226D
:10007E00F8BB010DE58229F582E5833AF583E8F0B8
:10008E00225006E92582C8F622BBFE05E92582C864
:02009E00F2224C
:100404008B598A5A895B8B5F8A608961AB59055B1A
:10041400E55BAA5A7002055A14F912002670ED74AD
:10042400FF255BF55B74FF355AF55AAB5C055EE559
:100434005EAA5D7002055D14F9120026FFAB590532
:100444005BE55BAA5A7002055A14F9EF12006C704E
:08045400DAAB5FAA60A9612286
:1000A000E709F60870FA8046E709F20870FA803E20
:1000B00088828C83E709F0A370FA807EE309F60852
:1000C00070FA8076E309F20870FA806E88828C8379
:1000D000E309F0A370FA806289828A83E0A3F608BC
:1000E00070FA805689828A83E0A3F20870FA804A07
:1000F00080D280FA80C680D4806580F28031801002
:1001000080A680EA809A80A880DA80E280CA803166
:1001100089828A83ECFAE493A3C8C582C8CCC583DC
:10012000CCF0A3C8C582C8CCC583CC70E9800D894A
:10013000828A83E493A3F60870F9ECFAA9F0EDFB48
:100140002289828A83ECFAE0A3C8C582C8CCC58321
:10015000CCF0A3C8C582C8CCC583CC70EA80DD8949
:10016000828A83E493A3F20870F980CE88F0ED24AC
:1001700002B4040050C4F582EB2402B4040050BA67
:0901800023234582239000F07353
:00000001FF
