:03000000020026D5
:0C002600787FE4F6D8FD75814202006D81
:100177003E004F4B0041540041542B434D47463DF1
:10018700310041542B435343533D2247534D2200E3
:1001970041542B434D47533D2231333534383632A2
:1001A70034313233220054455354204F4B21211A06
:0201B700200026
:03001900010800DB
:0802C500C299D2AC7FF47E0166
:1002CD00D3EF9400EE940040147D7D7C00ED1D7005
:0D02DD00011CED4C70F7EF1F70E61E80E372
:0102EA0022F1
:0A030E007B007A0079097D287C004D
:10031800ED1DAE0470011C4E600CE412029A042913
:07032800F9E43AFA80EA2231
:1001B90012030EE4FFEF90017C93F5993099FDC28B
:1001C900990FBF02F075990D3099FD1202C5753767
:1001D900FF7538017539797B007A0079091200B207
:0C01E9008B318A328933E94A4B60C52211
:1001F50012030EE4FFEF90017F93F5993099FDC24C
:10020500990FBF09F075990D3099FD1202C5753723
:10021500FF7538017539797B007A0079091200B2CA
:0C0225008B408A418942E94A4B60C522A7
:1002EB00E4FFEF90018993F5993099FDC2990FBF07
:1002FB000EF075990D3099FDC29975990A3099FDDB
:02030B00C29995
:01030D0022CD
:1002310012030EE4FFEF90019793F5993099FDC2F7
:10024100990FBF15F075990D3099FD1202C57537DB
:10025100FF7538017539777B007A0079091200B290
:0C0261008B318A328933E94A4B60C52298
:10032F00E4FFEF9001AD93600AF5993099FDC29902
:03033F000F80EF3D
:010342002298
:10000300758920758DFA758BFAD28ED29CC29FD2D8
:060013009ED2AFD2AC2228
:10013400120003C281C282C283C2847F327E001253
:1001440002CDC2AC7FD07E071202CD1201B9C281AA
:100154007FE87E031202CDC2827FE87E031202CDC5
:10016400120231C2837FE87E031202CD12032FC232
:030174008480FE86
:0300230002026D69
:10026D00C0E0C0D075D000C000C007309816C2984D
:10027D00AF08050874092FF8A699E508C39428401E
:0D028D0003750800D007D000D0D0D0E032BB
:10003200020134E493A3F8E493A34003F68001F2AF
:1000420008DFF48029E493A3F85407240CC8C333CF
:10005200C4540F4420C8834004F456800146F6DF9E
:10006200E4800B0102040810204080900019E47E15
:10007200019360BCA3FF543F30E509541FFEE49393
:10008200A360010ECF54C025E060A840B8E493A35A
:10009200FAE493A3F8E493A3C8C582C8CAC583CA85
:1000A200F0A3C8C582C8CAC583CADFE9DEE780BE3D
:01001C0000E3
:10029A00BB010689828A83F0225002F722BBFE0143
:0202AA00F3223D
:1000B2008B348A358936AB37AA38A9391202AC603B
:1000C20063AB34AA35A9361202AC605F85373A8534
:1000D200383B85393C8B3D8A3E893FAB3AAA3BA9E6
:1000E2003C1202ACFF6023AB3DAA3EA93F1202AC18
:1000F2006F701704253CF53CE4353BF53B74012554
:100102003FF53FE4353EF53E80D1AB3AAA3BA93CF0
:100112001202AC7002800D74012536F536E43535D5
:10012200F535809DAB34AA35A936227B007A007959
:020132000022A9
:1002AC00BB010689828A83E0225002E722BBFE0250
:0902BC00E32289828A83E4932283
:00000001FF
