:100000000200D9BB010689828A83E0225002E722DE
:10001000BBFE02E32289828A83E49322BB010CE5C2
:100020008229F582E5833AF583E0225006E92582AC
:10003000F8E622BBFE06E92582F8E222E58229F5F0
:1000400082E5833AF583E49322BB010689828A83A1
:10005000F0225002F722BBFE01F3227401FF339518
:10006000E0FEFDFCA3A3A3E0CF2FF0E58215827094
:10007000021583E0CE3EF0E582158270021583E022
:10008000CD3DF0E582158270021583E0CC3CF02274
:10009000ECF0A3EDF0A3EEF0A3EFF022FAE6FB08FC
:1000A00008E6F925F0F618E6CA3AF622EC8EF0A436
:1000B000CCC5F0CCCDF8EFA4CEC5F02DFDE43CFCD2
:1000C000E8A42EC8C5F03DFDE43CFCEFA4FFE5F03C
:1000D00028FEE43DFDE43CFC22787FE4F6D8FD7583
:1000E000811D0201200201C6E493A3F8E493A3401A
:1000F00003F68001F208DFF48029E493A3F85407A3
:10010000240CC8C333C4540F4420C8834004F4569D
:10011000800146F6DFE4800B0102040810204080D5
:10012000900165E47E019360BCA3FF543F30E50974
:10013000541FFEE493A360010ECF54C025E060A8D5
:1001400040B8E493A3FAE493A3F8E493A3C8C58268
:10015000C8CAC583CAF0A3C8C582C8CAC583CADFD6
:10016000E9DEE780BE031B0000000318000000006A
:10017000120403050000400F0909410A180E31005E
:100180004510210170FF2901505206548056030C7E
:100190001F0D3B0E110F03102D114933023406358C
:1001A0000639153A363B573C783D99535844004937
:1001B000034A205A83FF297E737F843610FF297EED
:1001C000737F043610FF71097F647E00711D51F743
:1001D000D28731D680FCE4F50820864A7D027F294B
:1001E00051278F087B587D027F295147E50824F865
:1001F000601A24F8601324D0702C7B315143C287DD
:1002000051FF7B115143D28722B287227D5D7F2926
:1002100051278F187D5E7F2951278F197D5F7F2998
:1002200051278F1AB287228D0D7513017514007531
:10023000150075160E7517017B007A00790D714E49
:10024000AF0E227D0E7F128D0D8B0E7B007A007912
:100250000D75130271FAFE910230C2FDC2C2E5E1D2
:1002600030E1027E01AF131513EF6013EE701091B1
:100270000B30C2FDC2C2E5E130E1EA7E0180E64317
:10028000E220EE7F0070027F01222095293095FD4B
:100290007F0A7E00711DAB1B7D657F295147AB1C1A
:1002A0007D667F295147AB1D7D677F2951477B03C1
:1002B0007D5C7F295147228B088A09890A750B01C9
:1002C0001103F50C71EAF4602D850B82758300A390
:1002D000111CFBAF0C514771EAAF0C5127E50BF530
:1002E00082758300A3AB08AA09A90A111CB507D41B
:1002F000050B050B80CE227BFF7A0179B680B87D95
:10030000037F295127EF60F722759371759F55C2BE
:1003100081C283C287C28271E07FC87E007C017D7A
:100320001011AC900000119090000074FF115DEC72
:100330004D4E4F70F322D2817BFF7A01797051B715
:100340007FC87E00711D7B117D0E7F12414771FABF
:10035000FD910230C2FDC2C2E5E130E1027D01AC97
:10036000131513EC6013ED7010910B30C2FDC2C277
:10037000E5E130E1EA7D0180E6ED600643E2207FC1
:10038000002243E210EF25E04401F5DA30C2FDC25D
:10039000C2E5E130E1027D01AF171517EF6029EDED
:1003A0007026E517700343E22030C2FDC2C2AEE101
:1003B000EE30E0F57814E475F001119CE5DA1149AE
:1003C000EE30E1D47D0180D0ED7F0070027F01220C
:1003D0007BFF7A0179BE41B77BFF7A01798641B70D
:1003E00075E28743A60475E1DF22AB08AA09A90AD2
:1003F000850B82758300111CFD228B108A118912D6
:10040000E42243E210EF25E0F5DA22781075F001DE
:07041000119C1103F5DA2233
:00000001FF
