:0300000002011DDD
:0C011D00787FE4F6D8FD75810A02007CB2
:10002F0041542B434D47533D222B3836313538350C
:10003F0038323730323632220041542B434D474647
:0B004F003D310047736D546573740071
:1000CE00EF1FAA0670011E4A600BE4FDEDC3947883
:0500DE0050EE0D80F75B
:0100E30022FA
:07010E007F0D1201157F0AAD
:080115008F993099FDC2992277
:040003007BFF7C0003
:100007008B088A09890AED1DAE0470011C4E601722
:10001700AB08050AE50AAA097002050914F91200D6
:08002700B5FF12011580DF2274
:10009B00758920758DFD758BFD759850E4F587D2AC
:0A00AB008FD28ED2ACD2A9D2AF22C0
:1000E4007A0079487D0912000312010ED2AC7FE830
:0500F4007E030200CEB6
:1000F9007A00792F7D1812000312010ED2AC7FE825
:050109007E030200CEA0
:10005A007BFF7A0079527D077C001200077F1A1213
:10006A000115D2AC7FE87E031200CE7F887E130290
:02007A0000CEB6
:10007C0012009B2096FD1200E41200F912005A7F28
:0F008C00507EC31200CE7F507EC31200CE80E4A0
:1000B500BB010689828A83E0225002E722BBFE0249
:0900C500E32289828A83E493227C
:00000001FF
