:1002ED00415426460D0A0041540D0A0041542B433A
:1002FD004D47463D310D0A0041542B435343533D69
:10030D000047534D000D0A0041542B434E4D493DBE
:10031D00322C322C302C310D0A00B4F2BFAA0D0A4A
:08032D0000B9D8B1D50D0A009A
:1001DF004100780041007900603C00000000000001
:1001EF000000000000000000000000000000000000
:1001FF0000000000000000000000000000000000F0
:10020F0000000000000000000000000000000000DF
:10021F000000000000000000603C003C00000000F7
:10022F0000000000000000000000000000000000BF
:10023F0000000000000000000000000000000000AF
:10024F00000000000000000000000000000000009F
:08025F00000000000000000097
:040400007FF47E0106
:0A040400EF1FAC0670011E4C6021D2
:10040E0090007D7412F090007C7498F090007CE067
:0F041E0014F0E070F790007DE014F0E070E8005B
:03042D0080D52255
:10026800E4900079F0A3F0A3F090007AE0FEA3E018
:10027800FFC3943CEE9400501C743C2FF58274002C
:100288003EF583E4F090007BE004F070DC90007AA7
:10029800E004F080D47BFF7A0279ED12039C7F2C76
:1002A8007E01120404E4900079F07BFF7A0279F46D
:1002B80012039C7FE87E03120404900041E0FF12C1
:1002C800000E900042E0FF12000E900041E0B44F93
:1002D8000DA3E0B44B08E4900079F07F0122E4908C
:0502E8000079F0FF2287
:10045F00438E40758920759850758DFD858D8BE481
:10046F00F587D2AFD28E438E08759A50759CFA439A
:09047F008E04438E1075AF0122BA
:1000460012045F120268BF01FAE4F5807BFF7A02B0
:1000560079F912039C1204007BFF7A0379051203D7
:100066009C7F221200037BFF7A03790E12039C7F8A
:10007600221200037BFF7A03791212039C120400FA
:100086007BFF7A03791512039C120400900079E035
:10009600700302011D7FC87E00120404E4900079FB
:1000A600F090006EE0FF12000E90006FE0FF12006D
:1000B6000E900070E0FF12000E900071E0FF12003B
:1000C6000E900072E0FF12000E900073E0FF120027
:1000D6000E90006EE0B44CB4A3E0B445AFA3E0B418
:1000E60044AAA3E0B44F13A3E0B44E0E7BFF7A03F9
:1000F60079271203697580FF8092900071E0644F42
:10010600708AA3E0644670847BFF7A03792E12031B
:1001160069E4F580020092E490007AF0A3F0900082
:100126007AE0FEA3E0FFC3943CEE94004003020095
:1001360092743C2FF58274003EF583E4F090007BC8
:0D014600E004F070D990007AE004F080D160
:030023000203CF06
:1003CF00C0E0C083C082C0D075D000C0073098167F
:1003DF00C298900078E0FF04F074002FF582E434A7
:1003EF0000F583E599F0D007D0D0D082D083D0E04C
:0103FF0032CB
:0300430002033580
:10033500C0E0C083C082C0D075D000C007E59A3048
:10034500E017539AFE900079E0FF04F0743C2FF516
:1003550082E43400F583E59BF0D007D0D0D082D07D
:0403650083D0E0322F
:08000E008F993099FDC299227F
:0B0003008F9BE59A30E1FB539AFD2231
:1003690090007CEBF0A3EAF0A3E9F090007CE0FBBD
:10037900A3E0FAA3E0F9120430601790007CA3E42B
:1003890075F001120449A9F0FA120430FF12000EA7
:0303990080D922E6
:10039C0090007CEBF0A3EAF0A3E9F090007CE0FB8A
:1003AC00A3E0FAA3E0F9120430601790007CA3E4F8
:1003BC0075F001120449A9F0FA120430FF1200037F
:0303CC0080D922B3
:03000000020153A7
:0C015300787FE4F6D8FD75810702019A60
:10043000BB010689828A83E0225002E722BBFE02CA
:09044000E32289828A83E49322FD
:10044900A3F8E0C5F025F0F0E58215827002158366
:06045900E0C838F0E822C3
:10015F00020046E493A3F8E493A34003F68001F270
:10016F0008DFF48029E493A3F85407240CC8C333A1
:10017F00C4540F4420C8834004F456800146F6DF70
:10018F00E4800B01020408102040809001DFE47E20
:10019F00019360BCA3FF543F30E509541FFEE49365
:1001AF00A360010ECF54C025E060A840B8E493A32C
:1001BF00FAE493A3F8E493A3C8C582C8CAC583CA57
:1001CF00F0A3C8C582C8CAC583CADFE9DEE780BE0F
:010267000096
:00000001FF
