:10005B0041542B434D47463D310D0A0041542B4330
:10006B005343533D2247534D220D0A0041542B431A
:10007B004D47533D0031383834353134363736310E
:0E008B00004861726D66756C67617365730085
:1000B200758920758DFD758BFDD28EC29FD29ED221
:0600C2009CD2ACD2AF227B
:080102008F993099FDC299228A
:1000C800120099FF600C120102740129F9E43AFA4E
:0300D80080EE2295
:0D00DB00EFD3940040077E78DEFE1F80F317
:0100E80022F5
:05010A007F640200DB30
:0300E9001200C83A
:0900EC00E4FD12010A0DBD1EF92C
:0100F50022E8
:100003001200B27BFF7A00795B1200E97A0079670C
:100013001200E97A0079771200C87F221201027A6E
:100023000079801200C87F221201027F0D120102A3
:100033007F0A1201021200EC7A00798C1200C812B6
:1000430000EC7F1A1201021200EC1200EC1200EC19
:080053001200EC1200EC80AB7E
:030000000200F605
:0C00F600787FE4F6D8FD75810702000356
:10009900BB010689828A83E0225002E722BBFE0265
:0900A900E32289828A83E4932298
:00000001FF
