:10034800415426460D0A0041540D0A0041542B43DE
:100358004D47463D310D0A0041542B435343533D0D
:100368000047534D000D0A0041542B434E4D493D63
:10037800322C322C302C310D0A0041542B434D477E
:10038800533D003138383435313436373631006E24
:100398006968616F00B4F2BFAA0D0A00B9D8B1D577
:0303A8000D0A003B
:10023A004100780041007900603C000000000000A5
:10024A0000000000000000000000000000000000A4
:10025A000000000000000000000000000000000094
:10026A000000000000000000000000000000000084
:10027A000000000000000000603C003C000000009C
:10028A000000000000000000000000000000000064
:10029A000000000000000000000000000000000054
:1002AA000000000000000000000000000000000044
:0802BA0000000000000000003C
:04047C007FF47E018A
:0A048000EF1FAC0670011E4C602156
:10048A0090007D7412F090007C7498F090007CE0EB
:0F049A0014F0E070F790007DE014F0E070E800DF
:0304A90080D522D9
:1002C300E4900079F0A3F0A3F090007AE0FEA3E0BD
:1002D300FFC3943CEE9400501C743C2FF5827400D1
:1002E3003EF583E4F090007BE004F070DC90007A4C
:1002F300E004F080D47BFF7A0379481203B17F2CAA
:100303007E01120480E4900079F07BFF7A03794F39
:100313001203B17FE87E03120480900041E0FF12D4
:10032300000E900042E0FF12000E900042E0B44F36
:100333000DA3E0B44B08E4900079F07F0122E49030
:050343000079F0FF222B
:1004DB00438E40758920759850758DFD858D8BE405
:1004EB00F587D2AFD28E438E08759A50759CFA431E
:0904FB008E04438E1075AF01223E
:100046001204DB1202C3BF01FAE4F5807BFF7A03D8
:1000560079541203B112047C7BFF7A037960120390
:10006600B17F221200037BFF7A0379691203B17F05
:10007600221200031203AB12047C7BFF7A03797011
:100086001203B112047C7BFF7A0379541203B11276
:10009600047C7BFF7A0379601203B17F221200038E
:1000A6007BFF7A0379691203B17F221200031203E0
:1000B600AB12047C7BFF7A0379821203B17F221292
:1000C60000037BFF7A03798B1203B17F22120003B0
:1000D6001203AB12047C7BFF7A0379971203B112E9
:1000E600047C7F1A120003900079E0700302017805
:1000F6007FC87E00120480E4900079F090006EE0E4
:10010600FF12000E90006FE0FF12000E900070E0EC
:10011600FF12000E900071E0FF12000E900072E0D8
:10012600FF12000E900073E0FF12000E90006EE0CA
:10013600B44CB4A3E0B445AFA3E0B444AAA3E0B47E
:100146004F13A3E0B44E0E7BFF7A03799D12041879
:100156007580FF8092900071E0644F708AA3E0641E
:100166004670847BFF7A0379A4120418E4F58002B2
:1001760000EDE490007AF0A3F090007AE0FEA3E0B0
:10018600FFC3943CEE940040030200ED743C2FF54F
:100196008274003EF583E4F090007BE004F070D9B1
:0801A60090007AE004F080D122
:0300230002044B89
:10044B00C0E0C083C082C0D075D000C00730981602
:10045B00C298900078E0FF04F074002FF582E4342A
:10046B0000F583E599F0D007D0D0D082D083D0E0CF
:01047B00324E
:030043000203E4D1
:1003E400C0E0C083C082C0D075D000C007E59A3099
:1003F400E017539AFE900079E0FF04F0743C2FF567
:1004040082E43400F583E59BF0D007D0D0D082D0CD
:0404140083D0E0327F
:08000E008F993099FDC299227F
:0B0003008F9BE59A30E1FB539AFD2231
:1004180090007CEBF0A3EAF0A3E9F090007CE0FB0D
:10042800A3E0FAA3E0F91204AC601790007CA3E4FF
:1004380075F0011204C5A9F0FA1204ACFF12000EFF
:0304480080D92236
:0603AB007BFF7A03796D6F
:1003B10090007CEBF0A3EAF0A3E9F090007CE0FB75
:1003C100A3E0FAA3E0F91204AC601790007CA3E467
:1003D10075F0011204C5A9F0FA1204ACFF12000372
:0303E10080D9229E
:030000000201AE4C
:0C01AE00787FE4F6D8FD7581070201F5AA
:1004AC00BB010689828A83E0225002E722BBFE024E
:0904BC00E32289828A83E4932281
:1004C500A3F8E0C5F025F0F0E582158270021583EA
:0604D500E0C838F0E82247
:1001BA00020046E493A3F8E493A34003F68001F215
:1001CA0008DFF48029E493A3F85407240CC8C33346
:1001DA00C4540F4420C8834004F456800146F6DF15
:1001EA00E4800B010204081020408090023AE47E69
:1001FA00019360BCA3FF543F30E509541FFEE4930A
:10020A00A360010ECF54C025E060A840B8E493A3D0
:10021A00FAE493A3F8E493A3C8C582C8CAC583CAFB
:10022A00F0A3C8C582C8CAC583CADFE9DEE780BEB3
:0102C200003B
:00000001FF
