:0300000002016B8F
:0C016B00787FE4F6D8FD7581070200E5FE
:100003000D0A003135393232323630353636004159
:10001300542B434D47533D0041542B434D47463DDD
:10002300310041542B434D47463D30007465737492
:10003300206F6B21210032300030383931363833AC
:100043003130383230303230354630313130303083
:100053004238313531323932323036363546363040
:100063003030384137303630303230344636303540
:0400730039374400D5
:0E00C10012010B7F1A120177D2AC7FE87E038A
:1000CF00EF1FAA0670011E4A600BE4FDEDC3947882
:0500DF0050EE0D80F75A
:0100E40022F9
:080177008F993099FDC2992215
:090102007BFF12010B7A00790366
:10010B0012011EFF600C120177740129F9E43AFA0F
:03011B0080EE2251
:10013700759850438921438780758DFD43A890D2D8
:040147008ED2992299
:10014B007A00791B120102D2AC7FB87E0B0200CF72
:100077007BFF7A00791212010B7A007906120104CC
:100087007FB87E0B1200CF7A00792F1200C17F88CC
:050097007E130200CF02
:10015B007A007925120102D2AC7FE87E030200CF30
:10009C007BFF7A00791212010B7A00793912010474
:1000AC007FB87E0B1200CF7A00793C1200C17F889A
:0500BC007E130200CFDD
:1000E50012013720900A12014B120077B28080F37B
:0D00F5002091F012015B12009CB28180E6A8
:10011E00BB010689828A83E0225002E722BBFE02DF
:09012E00E32289828A83E4932212
:00000001FF
