:1000260041540D004F4B0041542B434D47463D3143
:100036000041542B434D47463D300041542B43531A
:1000460043413D0041542B434D47533D003E001A6A
:100056000D0041542B434D47463D310D0A00415496
:100066002B435343533D2255435332220D0A00413D
:10007600542B43534D503D31372C302C322C3235D6
:100086000D0A0030303331303033383030333830C9
:100096003033343030333530303331303033343040
:1000A600303336303033373030333630303331005A
:1000B60034463630373331433632313136363246CE
:1000C6003843303146463146002B383631333830E6
:0800D6003034353135303000C3
:10030300758920758DFD758BFDD28EC29FD29ED2CD
:060313009CD2ACD2AF2227
:09032C007A00794A1203197F22BC
:080335008F993099FDC2992255
:10031900120003FF600C120335740129F9E43AFA5B
:0303290080EE2241
:0D033D00EFD3940040077E78DEFE1F80F3B2
:01034A002290
:05001C007F6402033DBA
:03034B0012031981
:09034E00E4FD12001C0DBD1EF9B6
:010357002283
:1002AD0075170AAF171517EF6025E4F5207BFF7A58
:1002BD00007926120319D2AC12001C8B0B1200E62A
:0F02CD00E94A600612034E02034E12034E80D41C
:0102DC0022FF
:020278008F6293
:10027A0075630AAF631563EF6028E4F520E5627BD6
:10028A00FF60067A00792D80047A00793712031903
:10029A001200DEE94A600612034E02034E12034EB2
:0202AA0080D101
:0102AC00222F
:06023B008B5E8A5F896002
:1002410075610AAF611561EF602CE4F5207BFF7ADF
:10025100007941120330AB5EAA5FA9601203307FBF
:100261000D1203351200DEE94A600612034E020345
:060271004E12034E80CD89
:010277002264
:060178008B538A548955E7
:10017E0075590A755A0A7BFF12032CAB53AA54A960
:10018E00551203307F0D120335E4F520AF59155982
:10019E00EF605212001C750BFF750C00750D53129B
:1001AE0000EC8B5B8A5C895DAE02AF01EF4E60DCCA
:1001BE00AB56AA57A958120319E4F5207BFF7A0013
:1001CE007955120319AF5A155AEF60C01200E08B21
:1001DE005B8A5C895DAE02AF01EF4E60037F012248
:0701EE0012034E80E07F00C8
:0101F50022E7
:1000DE00D2AC12001C750BFF750C00750D2A7B003F
:0400EE007A007921FA
:0600F2008B088A09890A4F
:1000F800AE02AF01EF4E6071E50D450C70028069EC
:1001080085080E85090F850A10AB0EAA0FA91012D3
:10011800000360558B118A128913850B14850C1501
:10012800850D16AB11AA12A913120003FFAB14AA6E
:1001380015A916120003FEB5071874012516F51641
:10014800E43515F51574012513F513E43512F51288
:1001580080D1EE7007AB0EAA0FA9102274012510EA
:0F016800F510E4350FF50F80A07B007A007900C9
:010177002265
:030023000202DDF9
:1002DD00C0E0C0D075D018C2AFE520C39432500F26
:1002ED0030980CC298AF20052074212FF8A699D212
:0602FD00AFD0D0D0E032CA
:1001F6001203037BFF7A00795812034B7A00796465
:1002060012034B7A00797512031912034E12032C4E
:100216007A0079891203307F0D1203357F0A1203A3
:100226003512034E7A0079B612031912034E7F1A5D
:0502360012033580FEFB
:03000000020358A0
:0C035800787FE4F6D8FD7581630201F6A1
:10000300BB010689828A83E0225002E722BBFE02FB
:09001300E32289828A83E493222E
:00000001FF
