:10022C0054686520686967686573742074656D70BF
:10023C0065726174757265206973003133205E4399
:01024C0000B1
:1001000001461A056C4154480D00114741544430D2
:10011000323232383231343131333B0D000B3B4116
:10012000542B434D47463D310D001A0841542B4393
:100130005343413D222B383631333031303736315D
:10014000353030220D00172341542B434D47533D8A
:10015000223133343632343035303637220D000117
:050160003A000122003D
:0D0166007B0012024D7FE87E037D007C00CF
:080173008F748E738D728C7184
:10017B00900000AF82AE83E4FCFDAB74AA73A9724E
:10018B00A871D312021B4011E4FFFE0FBF00010E3A
:09019B00EF64034E70F5A380DA55
:0101A4002238
:10024D001202026010F5993099FDC299740129F9D5
:06025D00E43AFA80EB22F6
:1001A5007A00793B1201667A0079081201667B00B4
:1001B5007A0079231201687BFF7A02792C12024DAD
:1001C5007A02794712024D8546993099FDC29922E6
:1001D500309826C2987458253AF8A699053AE53A12
:1001E500C39F50047E0180027E002098047D01801B
:0D01F500027D00EE5D60D980E5E4F53A2260
:10008F00758920E4F587759850758DF3758BF3D2CC
:10009F008E7FE87E03FDFC1201737B007A007947A7
:1000AF0012024D30980BC2A012016BD2A0C29880E1
:1000BF00F22080337B007A00796C12024D7F081298
:1000CF0001D5E55FB44B047F0180027F00E55EB48C
:1000DF004F047E0180027E00EE5F6007C294120122
:1000EF006BD294C298D2802081B91201A5D281809F
:0100FF00B24E
:03000000020003F8
:0C000300787FE4F6D8FD75817402004A95
:10020200BB010689828A83E0225002E722BBFE02FA
:09021200E32289828A83E493222D
:10021B00EB9FF5F0EA9E42F0E99D42F0E89C45F039
:01022B0022B0
:10000F0002008FE493A3F8E493A34003F68001F278
:10001F0008DFF48029E493A3F85407240CC8C333F2
:10002F00C4540F4420C8834004F456800146F6DFC1
:10003F00E4800B0102040810204080900100E47E50
:10004F00019360BCA3FF543F30E509541FFEE493B6
:10005F00A360010ECF54C025E060A840B8E493A37D
:10006F00FAE493A3F8E493A3C8C582C8CAC583CAA8
:10007F00F0A3C8C582C8CAC583CADFE9DEE780BE60
:010165000099
:00000001FF
