:03000000020003F8
:0C000300787FE4F6D8FD75810E02004AFB
:10008F000D0A0041544400313539323232363035A1
:10009F00363600303232323832313431313300417A
:1000AF00542B434D47533D004154480041542B437B
:1000BF004D47463D310041542B434D47463D30009F
:1000CF0074657374206F6B212100303839313638E5
:1000DF0033313038323030323035463031313030E4
:1000EF0030423831353132393232303636354636A4
:1000FF0030303038413730363030323034463630A9
:05010F00353937440002
:08028E000108000309323000F1
:0B01F2007F1A120297D2AC7FE87E0358
:1001FD00EF1FAA0670011E4A600BE4FDEDC3947853
:05020D0050EE0D80F72A
:0102120022C9
:080297008F993099FDC29922F4
:06014F007BFF7A00798FAE
:100155008B0C8A0D890EAB0CAA0DA90E12025F60DD
:1001650013050EE50E7002050D14F912025FFF125C
:05017500029780E22268
:10021300758920758DFD758BFD759850E4F587D232
:0A0223008FD28ED2ACD2A9D2AF2246
:100278007BFF7A0079B712015512014F1201F97FFD
:06028800E87E030201FD07
:10017A007BFF7A0079921201557BFF7A0079A212ED
:10018A0001557F3B12029712014F7F887E1312019D
:08019A00FD7F887E130201FDC8
:10022D007BFF7A0079BB12015512014F1201F712B3
:09023D0001F97FE87E030201FDD6
:1001A2007BFF7A0079AE1201557BFF7A00799612B5
:1001B200015512014F7BFF7A0079CF1201551201CE
:0801C200F27F887E130201FDAB
:100246007BFF7A0079C512015512014F1201F71290
:0902560001F97FE87E030201FDBD
:1001CA007BFF7A0079AE1201557B007A0079091219
:1001DA00015512014F7BFF7A0079D912015512019C
:0801EA00F27F887E130201FD83
:10011400120213209108120278E4F50880F5209069
:100124000CE508700812017A75080180E620920C2B
:10013400E508700812022D1201A280D72093D4E59D
:0B0144000870D01202461201CA80C8E9
:10000F00020114E493A3F8E493A34003F68001F2F2
:10001F0008DFF48029E493A3F85407240CC8C333F2
:10002F00C4540F4420C8834004F456800146F6DFC1
:10003F00E4800B010204081020408090028EE47EC1
:10004F00019360BCA3FF543F30E509541FFEE493B6
:10005F00A360010ECF54C025E060A840B8E493A37D
:10006F00FAE493A3F8E493A3C8C582C8CAC583CAA8
:10007F00F0A3C8C582C8CAC583CADFE9DEE780BE60
:010296000067
:10025F00BB010689828A83E0225002E722BBFE029D
:09026F00E32289828A83E49322D0
:00000001FF
