:0300DC00DFFE2222
:10009B00AE07AF061EEF600C7FF51200DC7FF5128A
:0500AB0000DC80EE22E4
:0800CA007F0F7E5ADEFEDFFC11
:0100D200220B
:0800D3007F037EDDDEFEDFFC91
:0100DB002202
:10007C00C293AF0A12008DC290D291C292C293AFBA
:01008C000A69
:0E008D00AD07AF051DEF60051200D380F52210
:0E00B000AD07AF051DEF60051200CA80F522F6
:10000300750802750900750A0AC290C291C292C2AC
:1000130093E5091509AE08700215084E6021D290C8
:10002300C291C29212007CC290C291D292120089F4
:10003300C290C291C292D293AF0A12008D80D2C2F3
:1000430090C291C292C293750802750900E5091521
:1000530009AE08700215084E60A6C290C291C29202
:10006300D293AF0A12008DC290C291D29212007C39
:09007300D290C29112008780D4E2
:030000000200BE3D
:0C00BE00787FE4F6D8FD75810A0200038B
:00000001FF
