:03000000020003F8
:0C000300787FE4F6D8FD75810D02004AFC
:10008F000D0A0041542B434D47533D0041542B4320
:10009F004D47463D300030383931363833313038FE
:1000AF003230303230354630313130303042383105
:1000BF0035313239323230363635463630303038E7
:1000CF00413731323842463736434538363130467C
:1000DF004646304336453239354541363846433743
:0900EF0039414438464630310025
:0501DE000308333200AC
:04017B007FE87E0398
:10017F00EF1FAA0670011E4A600BE4FDEDC39478D1
:05018F0050EE0D80F7A9
:010194002248
:0801D6008F993099FDC29922B6
:060132007BFF7A00798FCB
:100138008B0B8A0C890DAB0BAA0CA90D1201AF60B1
:1001480013050DE50D7002050C14F91201AFFF122D
:0501580001D680E22247
:10019500758920758DFD758BFD759850E4F587D2B1
:0A01A5008FD28ED2ACD2A9D2AF22C5
:10015D007BFF7A00799B120138120132D2AC120169
:0E016D007B12017B12017B7FE87E0302017F83
:1000F8007BFF7A0079921201387B007A0079081226
:1001080001381201327F847E0312017F7BFF7A005F
:1001180079A51201387F1A1201D6D2AC7F887E13D6
:0A01280012017F7F887E1302017F21
:0E01C8001201952097FD12015D1200F880F5DE
:10000F000201C8E493A3F8E493A34003F68001F23E
:10001F0008DFF48029E493A3F85407240CC8C333F2
:10002F00C4540F4420C8834004F456800146F6DFC1
:10003F00E4800B01020408102040809001DEE47E72
:10004F00019360BCA3FF543F30E509541FFEE493B6
:10005F00A360010ECF54C025E060A840B8E493A37D
:10006F00FAE493A3F8E493A3C8C582C8CAC583CAA8
:10007F00F0A3C8C582C8CAC583CADFE9DEE780BE60
:0101E300001B
:1001AF00BB010689828A83E0225002E722BBFE024E
:0901BF00E32289828A83E4932281
:00000001FF
