:03000000023F2399
:0C3F2300787FE4F6D8FD7581E802231ECB
:101FA900434C434300434C4F53451A004F50454E51
:101FB9001A002B43504D533A0020302C002B434D2F
:101FC900474C3A2000303839313638333100220D48
:101FD9000A00353433383534303800534554204FEE
:101FE9004B1A00363541443546300053544152545A
:101FF90000454E440054454C3A00475053001A00DE
:1020090030303131303030443931363800303030C9
:102019003841300053454E443A204F4B211A004174
:10202900542B434D47533D22002200353344313967
:10203900303031363231303532394646463031006A
:1020490038424245374636453632313035323946DF
:1020590030303231002B434D47533A002B43504225
:10206900523A002B434D47523A002B434D532045DA
:1020790052524F5200524541445900310041544493
:10208900003B004154453056302B4346554E3D30B8
:102099003B2B4346554E3D310041542B4350494E4D
:1020A9003F004154453056300041542B43474D4D74
:1020B900004154453056302B434D47463D303B2B6C
:1020C900434E4D493D322C310041542B4950523D2C
:1020D9003936303026570041542B434C4343004195
:1020E900542B434D474C3D3400415448004154451D
:1020F9003056302B434D47463D313B2B434E4D49DE
:102109003D322C310041542B435042573D0041543C
:102119002B435042523D0041542B434D47523D0001
:1021290041542B434D47533D0041542B434D4744A4
:102139003D004154453056302B43504D533D2253B9
:102149004D22004154410041542B434F4C503D31E5
:102159000041542B434C5453004154453056302BC5
:10216900434950434C4F53450041542B4349505325
:102179004855540041542B434C504F52543D004153
:10218900542B435354543D0041542B434949435222
:102199000041545F43494653520041542B43444E36
:1021A900534749503D0041542B43444E53434647FE
:1021B9003D0041542B43444E534F5249503D004139
:1021C900542B434950484541443D313B2B434950E9
:1021D900464C503D313B2B4349504154533D312CE2
:1021E90035300041542B4349504154533D312C352E
:1021F900300041542B43495053454E440041542B20
:102209004349505345525645520041542B43495076
:10221900435347503D0041542B43495043434F4E8C
:102229003D0041542B43495053544152543D0041C0
:10223900542B434950445044503D300041542B43A2
:102249004950535441545553000D000024475052EE
:102259004D432C001A0000434C4F53450053454E43
:1022690044204F4B00300053494D333030204F4B01
:1022790021002B4950440042454550204F4B210035
:1022890052656C6179204F4E204F4B210052656C8D
:102299006179204F4646204F4B210053494D333039
:1022A90030204F4646204F4B2100D6D0CEC4204F78
:1022B900555432204F4B2100D6D0CEC4204F55540F
:1022C90031204F4B21000D002B434D54493A004F0B
:1022D900555431204F4E21004F555431204F464619
:1022E90021004F555432204F4E21004F5554322072
:1022F9004F4646210022544350222C223132322E9D
:102309003233342E3234332E313433222C223130CD
:0523190030312200003C
:10002600EF4E60147D2C7C01ED1D70011CED4C70B3
:08003600F7EF1F70011E80E8C6
:01003E00229F
:053E9800781A12312828
:103E9D00E4FFFEF5AF781A12311F8E827583001282
:103EAD003057FD601F539AFD8D9BAF9AEF5402FF63
:103EBD0060F8781A12311FAD060E8D8275830012CF
:0A3ECD00305770D1539AFD75AF0114
:013ED70022C8
:093ED80078001231287803EDF2A4
:103EE100E4FFFEF5AF7803E26E6023539AFD78009C
:103EF10012311F8E82758300123057F59BAF9AEFF6
:103F01005402FF60F87803E2AC060EB504D7539A69
:043F1100FD75AF018A
:013F15002289
:0D3F1600759A50759CF7758E1475AF0122D9
:03004300023C93E9
:103C9300C0E0C083C082C0D075D000C000C006C0E1
:013CA3000719
:103CA400E4FFAF9AEF5401FF64017041539AFE7828
:103CB400DDE6FF3395E0FEC3EF94B8EE64809480B4
:103CC400502EE606FF3395E0FE74B22FF5827400A1
:103CD4003EF583E59BF0E6FF3395E0FE74B22FF5E5
:103CE4008274003EF583E4F00876018003539AFD64
:0F3CF400D007D006D000D0D0D082D083D0E0321D
:05382600780F123128AB
:10382B00C291E47818F27F647E001200267818E2C9
:10383B0004F2E2C3940840EED291D21175100178D4
:10384B001212311F781C123128781FE510F2780FF5
:10385B0012311F1235A57818EFF2781212311F783A
:10386B0018E2FF04F28F82758300E4123096781809
:10387B00E2FF04F28F82758300E4123096E478182D
:10388B00F2781212311F7818E2FFF582758300125D
:10389B003057FE781512311F8F82758300EE123070
:1038AB00967818E2FF04F2EFD3941440D4781212F6
:1038BB00311F781C123128781512311F781F1231E5
:0E38CB002878227405F2780F12311F122BA5F7
:0138D90022CC
:053A35007804123128A5
:103A3A00C291E4780DF27F647E00120026780DE2CE
:103A4A0004F2E2C3940840EED291D21375100178C1
:103A5A000712311F781C123128781FE510F27804FA
:103A6A0012311F1235A5780DEFF2780712311F783F
:103A7A000DE2FF04F28F82758300E4123096E47837
:103A8A000DF2780712311F780DE2FFF58275830077
:103A9A00123057FE780A12311F8F82758300EE1298
:103AAA003096780DE2FF04F2EFD3941440D47807ED
:103ABA0012311F781C123128780A12311F781F120E
:0F3ACA00312878227401F2780412311F122BA5D3
:013AD90022CA
:03000B00023ADADC
:103ADA00C0E0C083C082C0D075D018758CB8758A12
:103AEA0000050B050FE50F7002050EE50BB4320950
:103AFA000512750B000508B294E512B40A03751293
:103B0A000075A0FFE5A0540F900074F0E0FF700468
:103B1A00D2108018EFD394004012EF540F640F6054
:103B2A000B301008900074E0F520C210D2B7A2083A
:103B3A0030B701B3500920B702C211A2B79208D216
:103B4A00A4A20A30A401B3500920A402C213A2A459
:103B5A00920AD2B2A20B30B201B3500920B202C209
:0E3B6A0014A2B2920BD0D0D082D083D0E03221
:030023000238DAC6
:1038DA00C0E0C0D075D018209803023987C298205A
:1038EA00800302396D78DFE6FF3395E0FEC3EF947B
:1038FA00B8EE648094804003023987E6062424F8EF
:10390A00A69978DFE6FF2424F87600EFB4051A7842
:10391A0024E6B40D1408E6B40A0F08E66432705DB2
:10392A00D219051178DFF6805478DFE6FFC3648088
:10393A0094854049D3EF6480948A504174222FF8C9
:10394A00E6640D703878DFE6FF2423F8E6640A702F
:10395A002C74212FF8E6B43224D219051178DF76B7
:10396A0000801A78DFE6FF3395E0FEC3EF94B6EEE7
:10397A00648094805007E6062424F8A699D0D0D013
:02398A00E03229
:053C1200782E1231289C
:103C170012303E7002FF22E47835F2FEFD782E1254
:103C2700311F8D82758300123057FF783112311F93
:103C37008E827583001230576F70487834EEF278B1
:103C470034E2FCC394B75039782E12311F8D827538
:103C570083001230577004EE04FF22782E12311FB2
:103C67008D82758300123057FF783112311F8C8295
:103C7700758300123057B507087834E204F20D80D7
:0B3C8700BEE4FD0EEE64B770947F00F9
:013C9200220F
:053E08007825123128AD
:103E0D00E4FEAD07782512311F8E827583001230C6
:103E1D00577003AF0522782512311F8E82758300EE
:103E2D00123057FF782812311F8D827583001230A2
:103E3D0057B507040E0D80037F0022EED3943C404E
:033E4D00C37FFF31
:013E5000224F
:052E16007818123128BC
:102E1B00C003C002C0017B007A0079007832123106
:102E2B0028D001D002D0037F051210E7E4F50EF590
:102E3B000FC3E50F9432E50E940040F578DFE6FE04
:102E4B00C36480948F50037F0022781812311FEED9
:102E5B00FF3395E08F82F583E4123096E478DFF64A
:102E6B0078E1F6781812311F78311231287BFF7A0E
:102E7B001F79A9123C1278E0EFF67002FF2278E07E
:102E8B00E60826F6E408F678E2E6FFC39409501C40
:102E9B00781812311F78E1E6F582758300123057EE
:102EAB00642C600878E10678E20680DBEFC39409B6
:102EBB0040037F002278E106E408F678E2E6FFC3E0
:102ECB009404501C781812311F78E1E6F582758353
:102EDB0000123057642C600878E10678E20680DB3C
:102EEB00EFC3940440037F002278E1067818123177
:102EFB001F78E1E6F5827583001230576434600366
:102F0B007F0022E478E2F678E2E6FFC39404501CDB
:102F1B00781812311F78E1E6F5827583001230576D
:102F2B00642C600878E10678E20680DBEFC394043A
:102F3B0040037F002278E106E408F678E2E6FFC35F
:102F4B009406501C781812311F78E1E6F5827583D0
:102F5B00001230576422600878E10678E20680DBC5
:102F6B00EFC3940640037F002278E106E618F6E4EF
:102F7B0078E2F6781812311F78E1E6F58275830056
:102F8B001230576422600A78E10678E206E6B41440
:102F9B00E278E0E6D3940250037F0022E478E2F675
:102FAB0078E2E6FFC394165060781812311F78E070
:102FBB00E606F582758300123057FE781B12311F1F
:102FCB008F82758300EE123096781812311F78E0DD
:102FDB00E6F582758300123057B4222878E2067822
:102FEB001B12311F78E2E6F582758300E4123096EE
:102FFB00781812311F78E0E606F582758300E4122B
:10300B003096800578E206809778E2E6FEC3941648
:10301B0040037F0022781812311F78E0E606F58214
:10302B00758300E4123096EED3940840037F01229F
:02303B007F0014
:01303D002270
:10376200780F123128781512311F781B1231287800
:103772000F12311F122E16EF607AB2907B007A0080
:1037820079007832123128780F12311F7F0D121012
:10379200E77B007A0079007832123128780F1231F3
:1037A2001F7F0D1210E7309016781212311FA801F8
:1037B200AC02AD037BFF7A1F79AE123223801478FC
:1037C2001212311FA801AC02AD037BFF7A1F79B53B
:1037D200123223781212311F781C123128781512F6
:1037E200311F781F12312878227402F2780F1231B9
:1037F2001F122BA57B007A007900783212312878CB
:103802000F12311F7F0D1210E77B007A00790078CA
:1038120032123128780F12311F7F0D1210E7C219B0
:04382200E4F5112296
:103DBE00201105D2117F0622201305D2137F042273
:103DCE0020141AD214C291E4FB7F647E00120026E6
:103DDE000BEBB408F4D291750A097F002230191743
:103DEE00C219C291E4FB7F647E001200260BEBB475
:093DFE0008F4D2917F02227F003B
:013E07002298
:10369B00900075E004F0E0C394074002E4F0E520ED
:1036AB00D394004073E4F580300018D287F50EF503
:1036BB000FC3E50F94D7E50E940050030080F2C2C0
:1036CB0087C200300119D286E4F50EF50FC3E50F62
:1036DB0094D7E50E940050030080F2C286C20130ED
:1036EB000219D285E4F50EF50FC3E50F94D7E50E5D
:1036FB00940050030080F2C285C202300358D2847A
:10370B00E4F50EF50FC3E50F94D7E50E94005003C7
:10371B000080F2C284C20322900075E0FFD39407AD
:10372B005023E4F50EF50FC3E50F940AE50E940054
:10373B0040F5900075E0FE7480A806088002C31364
:10374B00D8FCF58022EF24F8FF7480A807088002CC
:07375B00C313D8FCF5802226
:053D6F00782512312847
:103D7400ED75F00A8424307828F2ED75F00A84E5B4
:103D8400F0243008F2E408F2C003C002C0017BFE54
:103D94007A0079287832123128D001D002D0037FFA
:103DA4001D1210E77BFE7A007928783212312878C8
:093DB4002512311F7F1D1210E7DA
:013DBD0022E3
:051C2E00781D123128B1
:101C3300E47820F27820E2FFD394645015781D12E3
:101C4300311F8F82758300E41230967820E204F20C
:101C530080E27B007A0079007832123128781D12F5
:101C6300311F7F401210E7E4F50EF50FC3E50F9423
:101C73000FE50E940040F5781D12311F78311231B3
:101C8300287BFF7A1F79BB123C127820EFF2700396
:101C9300021E9DE22405F2E2FF781D12311F78280F
:101CA3001231287BFF7A1F79C2123E08EF60037F4F
:101CB3000022781D12311F7820E2FFF58275830020
:101CC30012305764206003021D9C8F82F583A37832
:101CD3001D12311F123057FFD3648094B150030299
:101CE3001D9CD3EF648094B94003021D9C7820E2CD
:101CF300F582758300A3A3123057642C6003021D81
:101D03009C7820E204F2781D12311F7820E2F582DC
:101D130075830012305724D07822F27820E204F23F
:101D2300E204F2E408F218E2F582758300123057F8
:101D330024D07821F275F00AA4F218E204F2E2F555
:101D43008275830012305724D0FF7821E22FF218D6
:101D5300E204F2E2FFF582758300123057642C70BF
:101D630003021EB48F82758300A3781D12311F12E4
:101D73003057642C6003021EB47821E275F00AA484
:101D8300F218E204F2E2F58275830012305724D090
:101D9300FF7821E22FF2021EB4781D12311F782042
:101DA300E2FFF58275830012305764206003021E40
:101DB300B4FE8F82F583A3781D12311F123057D3DF
:101DC300648094B05003021EB48F828E83A3A31247
:101DD3003057C3648094B05003021EB47820E2F5F8
:101DE300828E83A3A3A3781D12311F123057642C54
:101DF3006003021EB47820E204F2E2FF04F28F8251
:101E030075830012305724D07822F2E275F00AA4C9
:101E1300FFF27820E2FE04F28E82758300123057BF
:101E23002F24D07822F27820E204F2E408F218E2B8
:101E3300F58275830012305724D07821F275F00AA9
:101E4300A4F218E204F2E2F58275830012305724FB
:101E5300D0FF7821E22FF218E204F2E2FFF5827557
:101E63008300123057642C60488F82758300A378F7
:101E73001D12311F123057642C70367821E275F031
:101E83000AA4F218E204F2E2F582758300123057D5
:101E930024D0FF7821E22FF28017781D12311F9092
:101EA3000001123057B40D0912303EB434037F00E1
:101EB300227821E208F2087401F27822E2C39464E2
:101EC30040037401F27822E264016003021F6CFB99
:101ED300FAF97832123128781D12311F7F1312104C
:101EE300E7E4F50EF50FC3E50F9414E50E940040F7
:101EF300F5781D12311F78311231287BFF7A1F7953
:101F0300C6123C127820EFF27003021F94E22406FB
:101F1300F2E2FFF582758300A3781D12311F1230A0
:101F230057B42C0F8F8275830012305724D0782337
:101F3300F2802E7820E2FF04F28F82758300123044
:101F43005724D07823F2E275F00AA4FFF27820E256
:101F5300FE04F28E827583001230572F24D078232B
:101F6300F27823E2F50C7F0122781D12311F7823CA
:101F7300E2FD123B787820EFF2BF010CE22407F276
:101F83007823E2F50C7F01227820E2B404037F007A
:101F9300227822E214F208E204F218E26003021E3D
:051FA300BD78DFF6FF30
:011FA8002216
:050A3200780F123128CD
:100A3700121C2EEF7002FF22780F12311F7831122D
:100A470031287BFF7A1F79CE123C127E00781BEE8D
:100A5700F208EFF27003021095E22411F218E23463
:100A670000F2E478E0F6780F12311F781BE2FE08F7
:100A7700E2FFF5828E83123057C3648094B050032F
:100A8700021095780F12311F8F828E83A312305771
:100A9700C3648094B05003021095781CE22402F2DC
:100AA70018E23400F2780F12311F781B08E2FF2496
:100AB70001F218E2FE3400F28F828E83123057243F
:100AC700D078E0F6E6C454F0F6781BE2FE08E2F5CB
:100AD700828E83123057C3648094C14022780F12EC
:100AE700311F781B08E2FF2401F218E2FE3400F2FE
:100AF7008F828E8312305724C978E026F6802078BB
:100B07000F12311F781B08E2FF2401F218E2FE34AE
:100B170000F28F828E8312305724D078E026F67841
:100B27000F12311F781BE2FE08E2F5828E83123026
:100B370057B4390D781CE22404F218E23400F2802D
:100B47000B781CE22402F218E23400F2E478E2F6B1
:100B570078E01616780F12311F781BE2FE08E2FFC5
:100B6700F5828E83A3123057FD781512311F78E274
:100B7700E606F582758300ED123096780F12311F65
:100B87008F828E83123057FFB44628781512311F93
:100B970078E2E6F582758300E4123096781CE22449
:100BA70001F218E23400F208E22401F218E23400FC
:100BB700F2802D781512311F78E2E606F5827583EB
:100BC70000EF123096781CE22402F218E23400F2A9
:100BD70078E2E6D39414500878E0E66003020B57F6
:100BE700781512311F78E2E6F582758300E412303A
:100BF70096780F12311F781BE2FE08E2FFF5828E0E
:100C070083123057C3648094B05003020CF9780FF5
:100C170012311F8F828E83A3123057C3648094B022
:100C27005003020CF9780F12311F781BE2FE08E21D
:100C3700FFF5828E83A3A3123057C3648094B0500C
:100C470003020CF9780F12311F8F828E83A3A3A39F
:100C570012305764386003020CF9781CE22404F25E
:100C670018E23400F208E2240EF218E23400F20827
:100C7700E22402F218E23400F2E478E0F678E0E6E3
:100C8700FFD394394003020DE4780F12311F781B0C
:100C970008E2FD2401F218E2FC3400F28D828C8315
:100CA700123057FE781212311F8F82758300EE12B1
:100CB7003096780F12311F781BE2FE08E2FFF582AB
:100CC7008E83123057B40D15781212311F78E00653
:100CD700E6F582758300E4123096020DE4E478E1CC
:100CE700F6C3EF94B9EE94004003020DE478E006F2
:100CF700808B7B007A0079007832123128780F12C6
:100D0700311F7F4B1210E77B007A0079007832128F
:100D17003128780F12311F7F4B1210E7E4F50EF5DB
:100D27000FC3E50F9408E50E940040F5780F1231D4
:100D37001FAD0C123B78780F12311F783112312812
:100D47007BFF7A1F79D7123C127E00781BEEF208E0
:100D5700EFF27003021095E22402F218E23400F277
:100D6700E478E0F6780F12311F781B08E2FF2401C0
:100D7700F218E2FE3400F28F828E83123057FF782A
:100D87001212311F78E0E6FEF582758300EF12300C
:100D9700968E82758300123057FF12000E780F125D
:100DA700311F781BE2FE08E2FFF5828E831230576F
:100DB700B40D14781212311F78E006E6F5827583B8
:100DC70000E41230968012C3EF94B9EE94005009F4
:100DD70078E006E6D39439408B78E1760178E1E64E
:100DE7006003020E75781BF208F218E208E2FF783A
:100DF7001212311F78281231287BFF7A1F79DB12F4
:100E07003E08EF602FE4F50EF50FC3E50F94C8E534
:100E17000E940050030080F2C290781212311FA87E
:100E270001AC02AD037BFF7A1F79E4123223750A06
:100E3700037F0122781BE208E2FF781212311F7844
:100E4700281231287BFF7A1F79EC123E08EF7003D6
:100E5700021095E4F50EF50FC3E50F9496E50E9491
:100E67000050030080F2D290750A017F012278E1D9
:100E7700E664016003021095781BF208F218E20895
:100E8700E2FF781212311F78281231287BFF7A1F70
:100E970079F4123E08EF602FE4F50EF50FC3E50F66
:100EA7009464E50E940050030080F2C29078121209
:100EB700311FA801AC02AD037BFF7A1F79E4123220
:100EC70023750A037F0122781BE208E2FF781212DA
:100ED700311F78281231287BFF7A1F79FA123E08D2
:100EE700EF601BE4F50EF50FC3E50F946EE50E9466
:100EF7000050030080F2D290750A017F0122781B0F
:100F0700E208E2FF781212311F78281231287BFF9E
:100F17007A1F79FE123E0878E0EFF6700302103868
:100F2700781CE22404F218E23400F2E478E0F67860
:100F37001212311F781BE2FE08E2F5828E8312300F
:100F470057FFC3648094B15003021095D3EF6480B8
:100F570094B94003021095781212311F781B08E2EA
:100F6700FF2401F218E2FE3400F28F828E831230E2
:100F770057FF78E0E606F582758300EF1230967822
:100F87001CE22401F218E23400F2781212311F78C1
:100F9700E0E606F582758300742C12309678E0E659
:100FA70006F5827583007422123096781212311F6B
:100FB700781BE2FE08E2F5828E83123057FF640D3C
:100FC7006035EF6032781212311F78E0E606F5825D
:100FD700758300EF123096781CE22401F218E23490
:100FE70000F2781212311F781BE2FE08E2F5828EBA
:100FF70083123057B40DB4781212311F78E0E60629
:10100700F582758300742212309678E0E606F58241
:10101700758300E4123096781212311F783212313C
:1010270028780F12311F7F1C1210E7750A017F0104
:1010370022781BE208E2FF781212311F782812315A
:10104700287BFF7A207903123E087E00781BEEF298
:1010570008EFF26039781212311F782012312878A0
:101067001812311F7823123128E47826F2780F12EC
:10107700311F1200467BFF7A207907783A12312810
:10108700781212311F123D03750A037F0122780F70
:1010970012311FAD0C123D6F781BE4F20804F27891
:1010A7001BE2FE08E2FFD394B6EE9400501A780FC5
:1010B70012311F8F828E83E4123096781CE224014E
:1010C700F218E23400F280D77B007A007900783298
:0F10D700123128780F12311F7F141210E77F009B
:0110E60022E7
:05324000782512312881
:10324500E478E5F608F678E506782812311F78E582
:10325500E6F58275830012305770EB78E5E6FF7866
:10326500E3F6EFC313240F78E5F6E6FF75F00A845D
:10327500243078E0F6EF75F00A84E5F0243008F69E
:10328500E408F6FB7A0079E07832123128782512C5
:10329500311F7F161210E77F327E00120026E47878
:1032A500E4F6782512311FA801AC02AD037BFF7A45
:1032B50020790912322378E4760CE478E6F678E68C
:1032C500E6FFF582758300A3782B12311F12305764
:1032D500FE782512311F78E4E606F582758300EE47
:1032E500123096782B12311F8F827583001230575A
:1032F500FF782512311F78E4E606F582758300EF25
:1033050012309678E60606E6F582758300A3782BDB
:1033150012311F123057FF640D6003EF70387825A6
:1033250012311F78E4E606F5827583007446123083
:1033350096782B12311F78E6E6F5827583001230F8
:1033450057FF782512311F78E4E606F5827583006C
:10335500EF123096800B78E6E6D3941450030232D0
:10336500C3782512311F78E4E6F582758300E412EF
:103375003096C003C002C0017BFF7A207916783AE7
:10338500123128D001D002D003123D0378E3E6FFC5
:10339500C31378E5F6E6FFC4540F08F6D394094045
:1033A50008E6243779E0F7800878E6E6243079E006
:1033B500F7EF540F78E6F6D394094008E6243779F9
:1033C500E1F7800878E6E6243079E1F7E478E2F67B
:1033D500FB7A0079E0783A123128782512311F12EC
:1033E5003D03782812311F783A1231287825123199
:1033F5001F123D037BFF7A207907783A123128782E
:103405002512311F123D037B007A007900783212B4
:103415003128782512311F7F181210E778E5E6FF6D
:013425002284
:052BA50078191231282F
:102BAA0078237401F208F2C003C002C0017B007AE4
:102BBA000079007832123128D001D002D0037F1474
:102BCA001210E77822E224FE7003022CCC14700360
:102BDA00022D7B24FE7003022D4524046003022D7E
:102BEA00AF7B007A007900783212312878191231D5
:102BFA001F7F4B1210E77B007A007900783212317E
:102C0A0028781912311F7F4B1210E7E47824F278E2
:102C1A001C12311F7824E2FF04F28F82758300743C
:102C2A0022123096E47823F2781F12311F7823E2B9
:102C3A00FF04F28F82758300123057FF781C12311D
:102C4A001F7824E2FE04F28E82758300EF1230961A
:102C5A00781F12311F7823E2F582758300123057EC
:102C6A00FF640D6003EF7026781C12311F7824E28E
:102C7A00FF04F28F8275830074221230967824E260
:102C8A00FF04F28F82758300E4123096800878245C
:102C9A00E2D394134092781C12311F7832123128F1
:102CAA00781912311F7F161210E77BFF7A20791DDF
:102CBA007832123128781912311F7F361210E70242
:102CCA002DAF7B007A0079007832123128781912F8
:102CDA00311F7F4B1210E7781912311FA801AC027D
:102CEA00AD037BFF7A207928123223781F12311F15
:102CFA00783A123128781912311F123D037BFF7A74
:102D0A00207932783A123128781912311F123D038C
:102D1A007B007A0079007832123128781912311F33
:102D2A007F181210E7781C12311F78321231287876
:102D3A001912311F7F361210E7806A781C12311F70
:102D4A00A801AC02AD037BFF7A20793412322378D2
:102D5A001C12311F7828123128781F12311F782B44
:102D6A00123128781912311F1232407824EFF2807A
:102D7A0034781C12311FA801AC02AD037BFF7A2004
:102D8A007949123223781C12311F78281231287897
:102D9A001F12311F782B123128781912311F123263
:102DAA00407824EFF2E478DFF6F508E508C3940FDB
:102DBA005016781912311F78311231287BFF7A2088
:102DCA00795E123C12EF60E3E47824F27824E2FFA1
:102DDA00D394B75015781912311F8F82758300E486
:102DEA001230967824E204F280E2781912311FAD8B
:102DFA000C123D6F7B007A00790078321231287804
:0B2E0A001912311F7F141210E77F0027
:012E1500229A
:0535A500781912312825
:1035AA00E478E4F6F6781FE2FF75F00A842430FE28
:1035BA0078E4E60624E1F8A606EF75F00A84E5F059
:1035CA002430FF78E4E60624E1F8A60778E4E60664
:1035DA0024E1F8E4F6C003C002C001FB7A0079E1F5
:1035EA007832123128D001D002D0037F1B1210E7A3
:1035FA00E4F50EF50FC3E50F940AE50E940040F5C5
:10360A00E478E4F6781912311F78311231287BFFF9
:10361A007A207965123C1278E0EFF6605A7409262E
:10362A00F6781912311F78E0E606F58275830012E2
:10363A003057FF781C12311F78E4E606F58275834D
:10364A0000EF123096781912311F78E0E6FEF58203
:10365A00758300123057B42217781C12311F78E490
:10366A00E606F582758300E412309678E4E6FF22D6
:10367A00EED3941840AB22781912311F9000011230
:10368A003057B40D0912303EB434037F00227F0054
:01369A00220D
:053B7800782412312841
:103B7D00E478E8F6ED75F00A842430FFE60624E3D8
:103B8D00F8A607ED75F00A84E5F02430FF78E8E635
:103B9D000624E3F8A60778E8E60624E3F8E4F6C081
:103BAD0003C002C001FB7A0079E37832123128D0CC
:103BBD0001D002D0037F191210E7E4F50EF50FC303
:103BCD00E50F941EE50E940040F5782412311F7810
:103BDD00311231287BFF7A20796C123C1278E8EF94
:103BED00F660037F0122782412311F7831123128BB
:103BFD007BFF7A207973123C1278E8EFF660037F31
:043C0D0004227F000E
:013C11002290
:05292600780F123128BA
:10292B00781212311F12303E123084C291E47815A6
:10293B00F27F017E001200267815E204F2E2D394B6
:10294B006440EED291E47815F27B007A007900783E
:10295B0032123128780F12311F7F041210E7780FD3
:10296B0012311F900001123057B40D0A12303E6421
:10297B00307003022A0878DFE6FF3395E0FE74FF20
:10298B002FF58274FF3EF583123057B40D1674FE8B
:10299B002FF58274FF3EF583780F12311F123057DB
:1029AB00643060597815E2D39401402DC286E4F56A
:1029BB0008E508C3940240F9D286E4F508E508C39C
:1029CB00940240F97B007A00790078321231287832
:1029DB000F12311F7F041210E7E47816F27F017E8D
:1029EB00001200267816E204F2E2D3941440EE783B
:1029FB0015E204F2E2C3940C50030229547815E259
:102A0B00C3940B5063E47815F27B007A007900785D
:102A1B0032123128780F12311F7F091210E7EF6045
:102A2B002A780F12311F78DFE6FF3395E08F82F59E
:102A3B0083E4123096780F12311F78311231287BD4
:102A4B00FF7A20797E123C12EF7015E4F508E50849
:102A5B00C3940240F97815E204F2E2C3940C40A946
:102A6B007815E2C3940B40747B007A0079007832BE
:102A7B00123128780F12311F7F031210E7E47816FA
:102A8B00F2E47815F27F017E001200267815E2043D
:102A9B00F2E2D394C840EE7816E204F2E2D3940249
:102AAB0040DF7B007A0079007832123128780F12E0
:102ABB00311F7F141210E7E47816F2E47815F27FD9
:102ACB00017E001200267815E204F2E2D394C8408E
:102ADB00EE7816E204F2E2D3941440DF7B007A0026
:102AEB0079007832123128780F12311F7F141210AF
:102AFB00E77B007A0079007832123128780F123197
:102B0B001F7F481210E77B007A0079007832123170
:102B1B0028780F12311F7F0A1210E77B007A007999
:102B2B00007832123128780F12311F7F311210E7E3
:102B3B007BFF7A2079847832123128780F12311F7B
:102B4B007F2F1210E77B007A007900783212312840
:102B5B00780F12311F7F281210E7E47816F2E47811
:102B6B0015F27F017E001200267815E204F2E2D303
:102B7B0094C840EE7816E204F2E2D3943C40DFC2F4
:102B8B0091E47815F27F017E001200267815E2049D
:092B9B00F2E2D3946440EED29101
:012BA400220E
:103E5100758CB8E4F58AC299C29875985075892015
:103E6100E58954F04401F589758DFD758BFDE4F507
:103E71008775A8B0D28ED2ACD28CD2A9C2ABD2AF48
:103E81007580FF7590FF75A0FF75B0FFF50B78DFAA
:073E9100F6D286123F162253
:0510E700782F123128F2
:1010EC00EF123131116C0011A90311D70412330521
:1010FC0011C00911EE0A12610D138D0E124A131252
:10110C000514130A1616001812E11912B81B128FC7
:10111C001C13331D13E62813FD2914262A144F2BF8
:10112C0014662C13CF2D147D2E14CF2F15CD301407
:10113C00F831150F32153D33155434135C3614A6A3
:10114C003C157D3D13764015264115A54215E3430C
:10115C0013B845121C4813A14A12784B000015F91C
:10116C00782F12311FA801AC02AD037BFF7A2079D6
:10117C0086123223783212311F783A123128782FA6
:10118C0012311F123D037BFF7A20798A783A123193
:10119C00287B007A007924123D03021600782F1266
:1011AC00311FA801AC02AD037BFF7A20798C12327F
:1011BC0023021600782F12311FA801AC02AD037B5D
:1011CC00FF7A2079A2123223021600782F12311FD7
:1011DC00A801AC02AD037BFF7A2079AB123223025B
:1011EC001600782F12311FA801AC02AD037BFF7AD9
:1011FC002079B2123223021600782F12311FA80167
:10120C00AC02AD037BFF7A2079BA123223021600AE
:10121C00782F12311FA801AC02AD037BFF7A207925
:10122C00D2123223021600782F12311FA801AC0201
:10123C00AD037BFF7A2079E0123223021600782F5F
:10124C0012311FA801AC02AD037BFF7A2079E812A2
:10125C003223021600782F12311FA801AC02AD0305
:10126C007BFF7A2079F2123223021600782F12318A
:10127C001FA801AC02AD037BFF7A2079F612322352
:10128C00021600782F12311FA801AC02AD037BFFB0
:10129C007A21790E123223783212311F783A1231B8
:1012AC0028782F12311F123D03021600782F1231AD
:1012BC001FA801AC02AD037BFF7A217917123223F0
:1012CC00783212311F783A123128782F12311F12CE
:1012DC003D03021600782F12311FA801AC02AD039A
:1012EC007BFF7A217920123223783212311F783A1F
:1012FC00123128782F12311F123D03021600782F5D
:10130C0012311FA801AC02AD037BFF7A217929129F
:10131C003223783212311F783A123128782F123159
:10132C001F123D03021600782F12311FA801AC02C8
:10133C00AD037BFF7A217932123223783212311FBE
:10134C00783A123128782F12311F123D0302160001
:10135C00782F12311FA801AC02AD03C000783212F5
:10136C00311FD000123223021600782F12311FA821
:10137C0001AC02AD037BFF7A21793B1232230216BA
:10138C0000782F12311FA801AC02AD037BFF7A212C
:10139C00794C123223782F12311FA801AC02AD0305
:1013AC007BFF7A217950123223021600782F1231EA
:1013BC001FA801AC02AD037BFF7A21795A123223AC
:1013CC00021600782F12311FA801AC02AD037BFF6F
:1013DC007A217962123223021600782F12311FA85B
:1013EC0001AC02AD037BFF7A217972123223021613
:1013FC0000782F12311FA801AC02AD037BFF7A21BC
:10140C00797D123223783212311F783A12312878D2
:10141C002F12311F123D03021600782F12311FA814
:10142C0001AC02AD037BFF7A21798812322378322A
:10143C0012311F783A123128782F12311F123D03C6
:10144C00021600782F12311FA801AC02AD037BFFEE
:10145C007A217991123223021600782F12311FA8AB
:10146C0001AC02AD037BFF7A21799A12322302166A
:10147C0000782F12311FA801AC02AD037BFF7A213B
:10148C0079A3123223783212311F783A123128782C
:10149C002F12311F123D03021600782F12311FA894
:1014AC0001AC02AD037BFF7A2179AF123223783283
:1014BC0012311F783A123128782F12311F123D0346
:1014CC00021600782F12311FA801AC02AD037BFF6E
:1014DC007A2179BB123223783212311F783A1231C9
:1014EC0028782F12311F123D03021600782F12316B
:1014FC001FA801AC02AD037BFF7A2179C8123223FD
:10150C00021600782F12311FA801AC02AD037BFF2D
:10151C007A2179EC123223021600782F12311FA88F
:10152C0001AC02AD037BFF7A2179FB123223021648
:10153C0000782F12311FA801AC02AD037BFF7A2279
:10154C007906123223021600782F12311FA801AC33
:10155C0002AD037BFF7A22791312322378321231D7
:10156C001F783A123128782F12311F123D030216C0
:10157C0000782F12311FA801AC02AD037BFF7A2239
:10158C00791F123223783212311F783A12312878AF
:10159C002F12311F123D03805B782F12311FA801CF
:1015AC00AC02AD037BFF7A22792B123223783212F4
:1015BC00311F783A123128782F12311F123D0380D7
:1015CC0033782F12311FA801AC02AD037BFF7A22B6
:1015DC007938123223801D782F12311FA801AC02EA
:1015EC00AD037BFF7A2279451232238007E478DF42
:1015FC00F67F0122D2AC7BFF7A227952783A1231F3
:10160C0028782F12311F123D03C298C299E4783505
:10161C00F208F27835E2FE08E2FFC394FEEE940085
:10162C005039782F12311F8F828E83123057FF6002
:10163C002A8F993099FDC299782F12311F7835E293
:10164C00FE08E2F5828E83123057641A600D7836EC
:10165C00E22401F218E23400F280B8E478DFF67884
:10166C002F12311FE4123084782F12311F90000199
:10167C00E4123096900002E4123096E47835F208C9
:10168C00F27F0A7E00120026D378DFE66480948114
:10169C0040097FE87E031200268017783508E2FFA8
:1016AC002401F218E2FE3400F2C3EF9408EE940722
:0416BC0040CF7F019B
:0116C0002207
:05342600780F123128AF
:10342B00E47817F21804F2E418F27815E204F2E2E9
:10343B00C394034002E4F27816E2FF70030235A452
:10344B007815E2FE14FDEFA805088002C313D8FC23
:10345B0020E0030235998E10781212311F781C125E
:10346B003128781FE510F2780F12311F1235A5782D
:10347B0017E204F2EFD39405500302359978121238
:10348B00311FAE070F8E82758300743B123096AEE0
:10349B00070F8E82758300E41230968F827583003E
:1034AB00E4123096781212311F7832123128780FCD
:1034BB0012311FE4FF1210E7E478DFF6F508E50898
:1034CB00C39428501A780F12311F12303EFF64300C
:1034DB006004EFB436E8900001123057B40DDF787A
:1034EB000F12311F12303E6430600302358490009E
:1034FB0001123057640D60030235847816E2FF1811
:10350B00E214FE7401A806088002C333D8FCF45FF2
:10351B007816F2E478DFF6F508E508C39450503FCF
:10352B00201119D211C291E4F50EF50FC3E50F94DA
:10353B000AE50E940050030080F2D29120131BD2A7
:10354B0013C291E4F50EF50FC3E50F940AE50E9443
:10355B000050030080F2D29180BF2014BCD2147BA8
:10356B00007A0079007832123128780F12311F7FE0
:10357B000D1210E77816E260207B007A0079007854
:10358B0032123128780F12311F7F0D1210E7781786
:09359B00E2C3941E500302343512
:0135A4002204
:05004600781D123128B5
:10004B00C280E4782DF2E47827F208F278DFF67FAD
:10005B00037E00120026D378DFE66480948140098A
:10006B007F327E001200268017782708E2FF2401DA
:10007B00F218E2FE3400F2C3EF94B0EE940440CFDA
:10008B00781D12311F78311231287BFF7A22795576
:10009B00123C12782AEFF27003020A21E22405F2D5
:1000AB00E408F2782AE204F2781D12311F782AE272
:1000BB00F582758300123057642C600C782BE2FFAD
:1000CB0004F2EFC3940D40DB782AE204F2E408F269
:1000DB00781D12311F782AE2FF04F28F827583009C
:1000EB00123057FF782312311F782BE2FE04F28E69
:1000FB0082758300EF123096781D12311F782AE239
:10010B00FF04F28F82758300123057FF7823123170
:10011B001F782BE2FE04F28E82758300EF1230966D
:10012B00781D12311F782AE2F58275830012305741
:10013B00FF782312311F782BE2FE04F28E82758337
:10014B0000EF123096782AE204F2781D12311F78F4
:10015B002AE2F582758300123057642C6008782BE5
:10016B00E2C3940D40BA781D12311F782AE2FF04C6
:10017B00F28F82758300123057FF782312311F786C
:10018B002BE2FE04F28E82758300EF123096781DFF
:10019B0012311F782AE2FF04F28F8275830012302E
:1001AB0057FF782312311F782BE2FE04F28E8275F3
:1001BB008300EF123096782BE2FF04F28F82758367
:1001CB00007420123096782BE2FF04F28F82758335
:1001DB00007420123096782BE2FF04F28F82758325
:1001EB00007420123096782AE204F2E4782CF2782C
:1001FB001D12311F782AE2F582758300123057FFEA
:10020B00782312311F782BE2FE04F28E8275830065
:10021B00EF123096782AE204F2781D12311F782AF9
:10022B00E2F582758300123057642C600C782CE257
:10023B00FF04F2EFC3940B40B6781D12311F782ADE
:10024B00E2FF04F28F82758300123057FF7823127E
:10025B00311F782BE2FE04F28E82758300EF123091
:10026B0096781D12311F782AE2FF04F28F82758374
:10027B0000123057FF782312311F782BE2FE04F265
:10028B008E82758300EF123096782BE2FF04F28F8B
:10029B0082758300E41230967826E26003020A0826
:1002AB007829F2782BF2782312311F782BE2FF0496
:1002BB00F28F82758300123057FF782012311F782E
:1002CB0029E2FE04F28E82758300EF1230967829B4
:1002DB00E2FF04F28F82758300742C12309678291A
:1002EB00E204F2782BE204F2E22404F582E433F523
:1002FB0083782312311F123057642E60030203BE22
:10030B00782312311F782BE2FF04F28F8275830062
:10031B00123057FF782012311F7829E2FE04F28E3B
:10032B0082758300EF123096782312311F782BE2FF
:10033B00FF04F28F82758300123057FF7820123141
:10034B001F7829E2FE04F28E82758300EF1230963D
:10035B007829E2FF04F28F82758300742C12309699
:10036B00782312311F782BE2FF04F28F8275830002
:10037B00123057FF782012311F7829E2FE04F28EDB
:10038B0082758300EF123096782312311F782BE29F
:10039B00FF04F28F82758300123057FF78201231E1
:1003AB001F7829E2FE04F28E82758300EF123096DD
:1003BB00020496782312311F782BE2FF04F28F820E
:1003CB00758300123057FF782012311F7829E2FE17
:1003DB0004F28E82758300EF123096782312311F50
:1003EB00782BE2FF04F28F82758300123057FF786F
:1003FB002012311F7829E2FE04F28E82758300EF02
:10040B00123096782312311F782BE2FF04F28F8281
:10041B00758300123057FF782012311F7829E2FEC6
:10042B0004F28E82758300EF1230967829E2FF0476
:10043B00F28F82758300742C123096782312311F41
:10044B00782BE2FF04F28F82758300123057FF780E
:10045B002012311F7829E2FE04F28E82758300EFA1
:10046B00123096782312311F782BE2FF04F28F8221
:10047B00758300123057FF782012311F7829E2FE66
:10048B0004F28E82758300EF123096782BE204F221
:10049B00782012311F7829E2FF04F28F82758300D6
:1004AB00742C123096782312311F782BE2FF04F252
:1004BB008F82758300123057FF3395E0FEEF24D007
:1004CB007828F2EE34FF18F2E2FE08E2FF7C007DA2
:1004DB000A1230B87827EEF208EFF2782BE2FF041D
:1004EB00F28F82758300123057FF3395E0FE782828
:1004FB00E22FFF18E23ECF24D008F2EF34FF18F2C0
:10050B00E2FE08E2FF1230B87827EEF208EFF2783D
:10051B002BE2FF04F28F82758300123057FF339565
:10052B00E0FE7828E22FFF18E23ECF24D008F2EF4E
:10053B0034FF18F2E2FE08E2FF1230B87827EEF231
:10054B0008EFF2782BE2FF04F28F827583001230F2
:10055B0057FF3395E0FE7828E22FFF18E23ECF24B9
:10056B00D008F2EF34FF18F2E2FE08E2FF7D06122C
:10057B0030B87827EEF208EFF218E2FE08E2FF7DC2
:10058B000A1230CA7827EEF208EFF218E2FE08E200
:10059B00FF7C007D641230CA782CEFF2E2FF75F01D
:1005AB000A842430FE782012311F7829E2FD04F2F0
:1005BB008D82758300EE123096EF75F00A84E5F0AC
:1005CB002430FF7829E2FE04F28E82758300EF124D
:1005DB0030967829E2FF04F28F82758300742C1217
:1005EB0030967827E2FE08E2FF7C007D641230CA69
:1005FB00782CEDF2E2FF75F00A842430FE7820129D
:10060B00311F7829E2FD04F28D82758300EE1230E2
:10061B0096EF75F00A84E5F02430FF7829E2FE04AA
:10062B00F28E82758300EF1230967829E2FF04F286
:10063B008F82758300742C123096782BE204F2783B
:10064B002312311F782BE2FF04F28F827583001285
:10065B003057FF782012311F900002EF123096783E
:10066B002BE22403F27829E208F218E204F2782B49
:10067B00E22404F582E433F583782312311F123020
:10068B0057642E6003020746782312311F782BE242
:10069B00FF04F28F82758300123057FF78201231DE
:1006AB001F7829E2FE04F28E82758300EF123096DA
:1006BB00782312311F782BE2FF04F28F82758300AF
:1006CB00123057FF782012311F7829E2FE04F28E88
:1006DB0082758300EF1230967829E2FF04F28F8245
:1006EB00758300742C123096782312311F782BE20D
:1006FB00FF04F28F82758300123057FF782012317E
:10070B001F7829E2FE04F28E82758300EF12309679
:10071B00782312311F782BE2FF04F28F827583004E
:10072B00123057FF782012311F7829E2FE04F28E27
:10073B0082758300EF12309602081E782312311F48
:10074B00782BE2FF04F28F82758300123057FF780B
:10075B002012311F7829E2FE04F28E82758300EF9E
:10076B00123096782312311F782BE2FF04F28F821E
:10077B00758300123057FF782012311F7829E2FE63
:10078B0004F28E82758300EF123096782312311F9C
:10079B00782BE2FF04F28F82758300123057FF78BB
:1007AB002012311F7829E2FE04F28E82758300EF4E
:1007BB001230967829E2FF04F28F82758300742C35
:1007CB00123096782312311F782BE2FF04F28F82BE
:1007DB00758300123057FF782012311F7829E2FE03
:1007EB0004F28E82758300EF123096782312311F3C
:1007FB00782BE2FF04F28F82758300123057FF785B
:10080B002012311F7829E2FE04F28E82758300EFED
:10081B00123096782BE204F2782012311F7829E2FD
:10082B00FF04F28F82758300742C1230967823129A
:10083B00311F782BE2FF04F28F8275830012305741
:10084B00FF3395E0FEEF24D07828F2EE34FF18F258
:10085B00E2FE08E2FF7C007D0A1230B87827EEF248
:10086B0008EFF2782BE2FF04F28F827583001230CF
:10087B0057FF3395E0FE7828E22FFF18E23ECF2496
:10088B00D008F2EF34FF18F2E2FE08E2FF1230B8A4
:10089B007827EEF208EFF2782BE2FF04F28F8275E5
:1008AB008300123057FF3395E0FE7828E22FFF18B4
:1008BB00E23ECF24D008F2EF34FF18F2E2FE08E25A
:1008CB00FF1230B87827EEF208EFF2782BE2FF0434
:1008DB00F28F82758300123057FF3395E0FE782834
:1008EB00E22FFF18E23ECF24D008F2EF34FF18F2CC
:1008FB00E2FE08E2FF7D061230B87827EEF208EF31
:10090B00F218E2FE08E2FF7D0A1230CA7827EEF2F7
:10091B0008EFF218E2FE08E2FF7C007D641230CA99
:10092B00782CEFF2E2FF75F00A842430FE78201267
:10093B00311F7829E2FD04F28D82758300EE1230AF
:10094B0096EF75F00A84E5F02430FF7829E2FE0477
:10095B00F28E82758300EF1230967829E2FF04F253
:10096B008F82758300742C1230967827E2FE08E292
:10097B00FF7C007D641230CA782CEDF2E2FF75F03B
:10098B000A842430FE782012311F7829E2FD04F20C
:10099B008D82758300EE123096EF75F00A84E5F0C8
:1009AB002430FF7829E2FE04F28E82758300EF1269
:1009BB0030967829E2FF04F28F82758300742C1233
:1009CB003096782BE204F2782312311F782BE2FF5A
:1009DB0004F28F82758300123057FF782012311F7B
:1009EB00782AE2F582758300EF1230967829E2FFC0
:1009FB0004F28F82758300E41230968027782012E0
:100A0B00311FA801AC02AD03C000782312311FD0F7
:100A1B0000123223800E782DE204F2E2D3940A50B6
:060A2B0003020051D2801D
:010A310022A2
:10398C00781A123128C003C002C0017B007A00797A
:10399C00007832123128D001D002D0037F411210AE
:1039AC00E7E4F50EF50FC3E50F9401E50E94004026
:1039BC00F5781A12311F12303EFFB43406B40D03E1
:1039CC007F00227BFF7A22795D783A123128781DAC
:1039DC0012311F123D03781D12311F78321231281B
:1039EC00781A12311F7F361210E7E4F508E508C388
:1039FC0094055032781A12311F78311231287BFF1E
:103A0C007A227960123C12EF60037F0022781A123E
:103A1C00311F78311231287BFF7A227966123C12E1
:093A2C00EF60CA7F01227F002235
:10266100781A123128C003C002C0017B007A0079B8
:10267100007832123128D001D002D0037F431210EA
:10268100E7E4F50EF50FC3E50F9401E50E94004064
:10269100F578DFE6FF3395E0FE74FB2FF58274FFDA
:1026A1003EF583781A12311F123057640D705F7432
:1026B100FC2FF58274FF3EF583123057640A704E89
:1026C10078DFE6FF3395E0FE74FD2FF58274FF3E5F
:1026D100F583781A12311F1230576438703074FE46
:1026E1002FF58274FF3EF583123057B40D2078DF49
:1026F100E6FF3395E0FE74FF2FF58274FF3EF5830C
:10270100781A12311F123057B40A037F01227B005D
:102711007A0079007832123128781A12311F7F310C
:102721001210E77B007A0079007832123128781A8A
:1027310012311F7F2D1210E7E4F50EF50FC3E50FDF
:102741009401E50E940040F5782012311F12303EBD
:1027510060177BFF7A2079847832123128781A1237
:10276100311F7F2F1210E780157BFF7A22796E7857
:1027710032123128781A12311F7F2F1210E7781D7B
:1027810012311F7832123128781A12311F7F42120A
:1027910010E7E4F508E508C3943C400302290A78F0
:1027A100DFE6FF3395E0FE74FB2FF58274FF3EF503
:1027B10083781A12311F123057640D706274FC2F26
:1027C100F58274FF3EF583123057640A705178DF49
:1027D100E6FF3395E0FE74FD2FF58274FF3EF5832D
:1027E100781A12311F1230576438703374FE2FF586
:1027F1008274FF3EF583123057B40D2378DFE6FF74
:102801003395E0FE74FF2FF58274FF3EF583781A4D
:1028110012311F123057B40A06E4F5087F012278FD
:10282100DFE6FF3395E0FE74FB2FF58274FF3EF582
:1028310083781A12311F123057640D60030228C0C9
:1028410074FC2FF58274FF3EF583123057640A70D1
:102851006E78DFE6FF3395E0FE74FD2FF58274FF9D
:102861003EF583781A12311F123057D3648094B722
:10287100504D74FE2FF58274FF3EF583123057647C
:102881000D703C78DFE6FF3395E0FE74FF2FF58293
:1028910074FF3EF583781A12311F123057B40A1FA4
:1028A100C003C002C0017B007A0079007832123186
:1028B10028D001D002D0037F2D1210E77F002278AB
:1028C100DFE6FF3395E0FE74FE2FF58274FF3EF5DF
:1028D10083781A12311F123057643460030227962D
:1028E10074FF2FF58274FF3EF583123057640D603B
:1028F10003022796FBFAF97832123128781A12313D
:102901001F7F2D1210E77F0022E50860177B007AF8
:102911000079007832123128781A12311F7F2D1276
:0529210010E77F002219
:0516C100780F12312832
:1016C600C003C002C001781212311F781D123128E2
:1016D600781512311F7820123128D001D002D0039C
:1016E6001226617818EFF27002FF22781212311F6B
:1016F600A801AC02AD037BFF7A22797012322378FF
:101706001212311F781D123128780F12311F12392B
:101716008CEF70037818F2E4F580F508E508C394B9
:10172600504003021C2B78DFE6648094815003024C
:101736001B13E4F50EF50FC3E50F9402E50E9400B6
:1017460040F5780F12311F78DFE6FF3395E08F8280
:10175600F583E4123096780F12311F783112312852
:101766007BFF7A22797B123C127818EFF270030223
:101776001B0CE478DFF67818E22403F2E204F27830
:101786000F12311F7818E2F582758300123057B4B4
:101796003A077818E204F280067818E22402F27812
:1017A60018E2FF08F2780F12311F8F82758300123C
:1017B6003057644270797818E2FF7E00F5828E8396
:1017C600A3123057644570678F82F583A3A3780F01
:1017D60012311F123057644570557818E2F5828E23
:1017E60083A3A3A312305764507044F508C29178BE
:1017F60018F27F647E001200267818E204F2E2C333
:10180600940440EED291781212311FA801AC02ADB9
:10181600037BFF7A227980123223781212311F78E5
:101826001D123128780F12311F12398C02172278B7
:101836000F12311F7818E2FFF582758300123057B8
:1018460064537073FE8F82F583A3780F12311F12D3
:101856003057645470618F82F583A3A312305764A6
:101866004170547818E2FFF5828E83A3A3A3780F04
:1018760012311F1230576452703D74042FF582E402
:1018860033F583123057B4542EC290781212311F9A
:10189600A801AC02AD037BFF7A2279891232237844
:1018A6001212311F781D123128780F12311F12398A
:1018B6008CE4F508021722780F12311F7818E2FF20
:1018C600F5827583001230576445704CFE8F82F5A1
:1018D60083A3780F12311F123057644E703A8F82ED
:1018E600F583A3A3123057B4442ED2907812123146
:1018F6001FA801AC02AD037BFF7A22799612322330
:10190600781212311F781D123128780F12311F12EA
:10191600398CE4F5080217227818E2FF780F1231A5
:101926001F78281231287BFF7A207903123E08EFB0
:101936006038781212311F7820123128781512314A
:101946001F7823123128E47826F2780F12311F12FD
:101956000046781212311F781D123128780F123185
:101966001F12398CE4F508021722780F12311F78FE
:1019760018E2FFF582758300123057645360030244
:101986001AA4FE8F82F583A3780F12311F123057E7
:1019960064496003021AA48F82F583A3A312305709
:1019A600644D6003021AA47818E2FFF5828E83A3C1
:1019B600A3A3780F12311F12305764336003021A43
:1019C600A474042FF582E433F58312305764306033
:1019D60003021AA47818E2FF2405F582E433F5839E
:1019E600780F12311F12305764306003021AA47444
:1019F600062FF582E433F583123057642060030224
:101A06001AA47818E2FF2407F582E433F583780FE9
:101A160012311F123057644F6003021AA474082F44
:101A2600F582E433F583123057644670717818E214
:101A36002409F582E433F583780F12311F123057EB
:101A46006446705AC003C002C001FBFAF97832122C
:101A56003128D001D002D0037F2D1210E778121260
:101A6600311FA801AC02AD037BFF7A2279A41232A2
:101A760023781212311F781D123128780F12311F68
:101A860012398C7B007A0079007832123128780F6F
:101A960012311F7F311210E7E4F5087F0122781911
:101AA600E218F2E408F2780F12311F7818E2F58294
:101AB600758300123057602C780F12311F7818E2A8
:101AC600FF04F28F82758300123057FF7819E2FE09
:101AD60004F274B22EF582E43400F583EFF0E2D31B
:101AE60094B440C27819E2FF04F274B22FF582E48E
:101AF6003400F583E4F07B017A0079B2123E98E473
:101B060078DFF6021722E478DFF602172220112B7F
:101B1600D211781212311FA801AC02AD037BFF7AF5
:101B26002279B3123223781212311F781D1231280E
:101B3600780F12311F12398C02172220132BD21361
:101B4600781212311FA801AC02AD037BFF7A22790D
:101B5600C1123223781212311F781D123128780FE4
:101B660012311F12398C021722201440D214781217
:101B760012311FA801AC02AD037BFF7A2279A412B1
:101B86003223781212311F781D123128780F123144
:101B96001F12398C7B007A0079007832123128784E
:101BA6000F12311F7F2D1210E77F012278DEE664C7
:101BB600017060F50EF50FC3E50F9405E50E940070
:101BC60040F5E478DEF618F6F5087B017A0079B27E
:101BD600781D123128780F12311F12398C7B007A4A
:101BE6000079007832123128780F12311F7F3112B6
:101BF60010E7E47818F27818E2FFD3946440030201
:101C0600172274B22FF582E43400F583E4F0E2047F
:101C1600F280E3D378DFE66480948A5003021722C9
:071C2600E4F60217227F0221
:011C2D002294
:10231E00123E517B017A00797678121231281B7A9F
:10232E00007924122926E4F580750A0578B27C001E
:10233E007D017BFF7A2279701232237BFF7A22791C
:10234E00CF783A1231287B017A0079B2123D037BA5
:10235E00017A0079B2123E98E478DDF678DFF6F570
:10236E0009C210F520D211D213D214C20AE50A64A2
:10237E0005600302255A750A057B017A0079767885
:10238E00121231287A00794078151231287A0079A4
:10239E005478181231281B7A007924120A32780EDA
:1023AE00EFF270C978DFF6F50EF50FC3E50F940561
:1023BE00E50E940040F5E478DFF6F508E508C394E1
:1023CE003C50AA123DBE780EEFF26005E2F50A808F
:1023DE009C7B007A00792478311231287BFF7A2297
:1023EE0079D1123C12EF6015E4F50EF50FC3E50F2F
:1023FE00940FE50E9400400302237B80F078DEE616
:10240E00B401B9E4F50EF50FC3E50F9405E50E948E
:10241E000040F5E478DEF618F69000B2E0FF646155
:10242E006005EF644170389000B3E0640D7030D2F7
:10243E008178B27C007D017BFF7A2279D81232231B
:10244E007BFF7A2279CF783A1231287B017A007994
:10245E00B2123D037B017A0079B2123E988044900D
:10246E0000B2E0FF64626005EF644270369000B324
:10247E00E0640D702EC28178B27C007D017BFF7A04
:10248E002279E11232237BFF7A2279CF783A123108
:10249E00287B017A0079B2123D037B017A0079B272
:1024AE00123E989000B2E0FF64636005EF644370E3
:1024BE00369000B3E0640D702ED28278B27C007D2F
:1024CE00017BFF7A2279EB1232237BFF7A2279CFBE
:1024DE00783A1231287B017A0079B2123D037B01E2
:1024EE007A0079B2123E989000B2E0FF6464600503
:1024FE00EF644470369000B3E0640D702EC28278A3
:10250E00B27C007D017BFF7A2279F41232237BFFAD
:10251E007A2279CF783A1231287B017A0079B21279
:10252E003D037B017A0079B2123E98E4780EF27880
:10253E000EE2FFD3946440030223CA74B22FF582D5
:10254E00E43400F583E4F0E204F280E3E50A640685
:10255E00703678767C007D017BFF7A2279FE12320E
:10256E0023E4900054F07B017A00797678121231D0
:10257E00287A00795478151231281B7A00792412A2
:10258E0016C1750A0502237BE50AB404227B017A83
:10259E0000797678121231287A0079407815123146
:1025AE00281B7A007924123826750A0502237BE54A
:1025BE000AB401277B017A007976781C1231287AC9
:1025CE00007940781F12312878227403F21B7A00AA
:1025DE007924122BA5750A0502237BE50AB403277D
:1025EE007B017A007976781C1231287A007940784E
:1025FE001F12312878227402F21B7A007924122BD2
:10260E00A5750A0502237BE50AB402227B017A0036
:10261E00797678121231287A00794078151231289D
:10262E001B7A007924123762750A0502237BE50AAC
:10263E00B409197B017A00797678121231281B7A47
:10264E00007924123426750A0502237B750A0502C9
:02265E00237BDC
:012660002257
:10303E00BB010689828A83E0225002E722BBFE0290
:09304E00E32289828A83E49322C3
:10305700BB010CE58229F582E5833AF583E022502E
:1030670006E92582F8E622BBFE06E92582F8E22278
:0D307700E58229F582E5833AF583E4932292
:10308400BB010689828A83F0225002F722BBFE012B
:02309400F32225
:10309600F8BB010DE58229F582E5833AF583E8F070
:1030A600225006E92582C8F622BBFE05E92582C81C
:0230B600F22204
:1030B800EF8DF0A4A8F0CF8CF0A428CE8DF0A42E2C
:0230C800FE22E6
:1030CA00BC000BBE0029EF8DF084FFADF022E4CCEA
:1030DA00F875F008EF2FFFEE33FEEC33FCEE9DECB3
:1030EA00984005FCEE9DFE0FD5F0E9E4CEFD22EDF9
:1030FA00F8F5F0EE8420D21CFEADF075F008EF2F43
:10310A00FFED33FD4007985006D5F0F222C398FD33
:05311A000FD5F0EA22D0
:09311F00E2FB08E2FA08E2F922E1
:09312800EBF208EAF208E9F222D8
:10313100D083D082F8E4937012740193700DA3A32D
:1031410093F8740193F5828883E473740293686041
:06315100EFA3A3A380DF41
:10000E00EFC39461400AEF947B5005EF24E0FF228A
:01001E0022BF
:103D03007837EBF208EAF208E9F2783DEBF208EAD9
:103D1300F208E9F27837E2FB0808E2F92401F21825
:103D2300E2FA3400F212303E70EA7839E224FFF20C
:103D330018E234FFF2783AE2FB0808E2F92401F2D0
:103D430018E2FA3400F212303EFF7837E2FB08083B
:103D5300E2F92401F218E2FA3400F2EF123084702F
:0C3D6300D4783DE2FB08E2FA08E2F92205
:10315700E709F60870FA8046E709F20870FA803E38
:1031670088828C83E709F0A370FA807EE309F6086A
:1031770070FA8076E309F20870FA806E88828C8391
:10318700E309F0A370FA806289828A83E0A3F608D4
:1031970070FA805689828A83E0A3F20870FA804A1F
:1031A70080D280FA80C680D4806580F2803180101A
:1031B70080A680EA809A80A880DA80E280CA80317F
:1031C70089828A83ECFAE493A3C8C582C8CCC583F5
:1031D700CCF0A3C8C582C8CCC583CC70E9800D8963
:1031E700828A83E493A3F60870F9ECFAA9F0EDFB61
:1031F7002289828A83ECFAE0A3C8C582C8CCC5833A
:10320700CCF0A3C8C582C8CCC583CC70EA80DD8961
:10321700828A83E493A3F20870F980CE88F0ED24C4
:1032270002B4040050C4F582EB2402B4040050BA7F
:0932370023234582239031A77383
:00000001FF
